{
  "contracts/SwapLst.sol": {
    "SwapLst": {
      "abi": [
        {
          "inputs": [
            {
              "internalType": "address",
              "name": "_qsd",
              "type": "address"
            },
            {
              "internalType": "address",
              "name": "_qrt",
              "type": "address"
            },
            {
              "internalType": "address",
              "name": "_usdc",
              "type": "address"
            }
          ],
          "stateMutability": "nonpayable",
          "type": "constructor"
        },
        {
          "anonymous": false,
          "inputs": [
            {
              "indexed": true,
              "internalType": "address",
              "name": "user",
              "type": "address"
            },
            {
              "indexed": false,
              "internalType": "string",
              "name": "token",
              "type": "string"
            },
            {
              "indexed": false,
              "internalType": "uint256",
              "name": "allowedAmount",
              "type": "uint256"
            }
          ],
          "name": "SnapshotSet",
          "type": "event"
        },
        {
          "anonymous": false,
          "inputs": [
            {
              "indexed": true,
              "internalType": "address",
              "name": "user",
              "type": "address"
            },
            {
              "indexed": false,
              "internalType": "string",
              "name": "token",
              "type": "string"
            },
            {
              "indexed": false,
              "internalType": "uint256",
              "name": "amountIn",
              "type": "uint256"
            },
            {
              "indexed": false,
              "internalType": "uint256",
              "name": "amountOut",
              "type": "uint256"
            }
          ],
          "name": "Swapped",
          "type": "event"
        },
        {
          "inputs": [],
          "name": "QRT",
          "outputs": [
            {
              "internalType": "contract IERC20",
              "name": "",
              "type": "address"
            }
          ],
          "stateMutability": "view",
          "type": "function"
        },
        {
          "inputs": [],
          "name": "QRT_RATE",
          "outputs": [
            {
              "internalType": "uint256",
              "name": "",
              "type": "uint256"
            }
          ],
          "stateMutability": "view",
          "type": "function"
        },
        {
          "inputs": [],
          "name": "QSD",
          "outputs": [
            {
              "internalType": "contract IERC20",
              "name": "",
              "type": "address"
            }
          ],
          "stateMutability": "view",
          "type": "function"
        },
        {
          "inputs": [],
          "name": "QSD_RATE",
          "outputs": [
            {
              "internalType": "uint256",
              "name": "",
              "type": "uint256"
            }
          ],
          "stateMutability": "view",
          "type": "function"
        },
        {
          "inputs": [],
          "name": "USDC",
          "outputs": [
            {
              "internalType": "contract IERC20",
              "name": "",
              "type": "address"
            }
          ],
          "stateMutability": "view",
          "type": "function"
        },
        {
          "inputs": [
            {
              "internalType": "address",
              "name": "",
              "type": "address"
            }
          ],
          "name": "allowedQRT",
          "outputs": [
            {
              "internalType": "uint256",
              "name": "",
              "type": "uint256"
            }
          ],
          "stateMutability": "view",
          "type": "function"
        },
        {
          "inputs": [
            {
              "internalType": "address",
              "name": "",
              "type": "address"
            }
          ],
          "name": "allowedQSD",
          "outputs": [
            {
              "internalType": "uint256",
              "name": "",
              "type": "uint256"
            }
          ],
          "stateMutability": "view",
          "type": "function"
        },
        {
          "inputs": [
            {
              "internalType": "uint256",
              "name": "amount",
              "type": "uint256"
            }
          ],
          "name": "emergencyWithdrawUSDC",
          "outputs": [],
          "stateMutability": "nonpayable",
          "type": "function"
        },
        {
          "inputs": [],
          "name": "owner",
          "outputs": [
            {
              "internalType": "address",
              "name": "",
              "type": "address"
            }
          ],
          "stateMutability": "view",
          "type": "function"
        },
        {
          "inputs": [
            {
              "internalType": "address",
              "name": "user",
              "type": "address"
            }
          ],
          "name": "remainingQRT",
          "outputs": [
            {
              "internalType": "uint256",
              "name": "",
              "type": "uint256"
            }
          ],
          "stateMutability": "view",
          "type": "function"
        },
        {
          "inputs": [
            {
              "internalType": "address",
              "name": "user",
              "type": "address"
            }
          ],
          "name": "remainingQSD",
          "outputs": [
            {
              "internalType": "uint256",
              "name": "",
              "type": "uint256"
            }
          ],
          "stateMutability": "view",
          "type": "function"
        },
        {
          "inputs": [
            {
              "internalType": "address[]",
              "name": "users",
              "type": "address[]"
            },
            {
              "internalType": "uint256[]",
              "name": "amounts",
              "type": "uint256[]"
            }
          ],
          "name": "setSnapshotQRT",
          "outputs": [],
          "stateMutability": "nonpayable",
          "type": "function"
        },
        {
          "inputs": [
            {
              "internalType": "address[]",
              "name": "users",
              "type": "address[]"
            },
            {
              "internalType": "uint256[]",
              "name": "amounts",
              "type": "uint256[]"
            }
          ],
          "name": "setSnapshotQSD",
          "outputs": [],
          "stateMutability": "nonpayable",
          "type": "function"
        },
        {
          "inputs": [
            {
              "internalType": "uint256",
              "name": "amount",
              "type": "uint256"
            }
          ],
          "name": "swapQRT",
          "outputs": [],
          "stateMutability": "nonpayable",
          "type": "function"
        },
        {
          "inputs": [
            {
              "internalType": "uint256",
              "name": "amount",
              "type": "uint256"
            }
          ],
          "name": "swapQSD",
          "outputs": [],
          "stateMutability": "nonpayable",
          "type": "function"
        },
        {
          "inputs": [
            {
              "internalType": "address",
              "name": "",
              "type": "address"
            }
          ],
          "name": "swappedQRT",
          "outputs": [
            {
              "internalType": "uint256",
              "name": "",
              "type": "uint256"
            }
          ],
          "stateMutability": "view",
          "type": "function"
        },
        {
          "inputs": [
            {
              "internalType": "address",
              "name": "",
              "type": "address"
            }
          ],
          "name": "swappedQSD",
          "outputs": [
            {
              "internalType": "uint256",
              "name": "",
              "type": "uint256"
            }
          ],
          "stateMutability": "view",
          "type": "function"
        }
      ],
      "evm": {
        "bytecode": {
          "linkReferences": {},
          "object": "61010060405234801561001157600080fd5b50604051611f28380380611f288339818101604052810190610033919061016e565b8273ffffffffffffffffffffffffffffffffffffffff1660808173ffffffffffffffffffffffffffffffffffffffff16815250508173ffffffffffffffffffffffffffffffffffffffff1660a08173ffffffffffffffffffffffffffffffffffffffff16815250508073ffffffffffffffffffffffffffffffffffffffff1660c08173ffffffffffffffffffffffffffffffffffffffff16815250503373ffffffffffffffffffffffffffffffffffffffff1660e08173ffffffffffffffffffffffffffffffffffffffff16815250505050506101c1565b600080fd5b600073ffffffffffffffffffffffffffffffffffffffff82169050919050565b600061013b82610110565b9050919050565b61014b81610130565b811461015657600080fd5b50565b60008151905061016881610142565b92915050565b6000806000606084860312156101875761018661010b565b5b600061019586828701610159565b93505060206101a686828701610159565b92505060406101b786828701610159565b9150509250925092565b60805160a05160c05160e051611ce16102476000396000818161060a015281816108580152818161087c01528181610aa901528181610b7301528181610dfa0152610fed0152600081816106cc0152818161083401528181610b370152610ebc015260008181610a850152610dbd01526000818161041d01526105cd0152611ce16000f3fe608060405234801561001057600080fd5b506004361061010b5760003560e01c806389a30271116100a2578063c352078811610071578063c3520788146102bc578063e9b9ca6c146102d8578063efd03498146102f4578063f363cd5f14610310578063f4db26ec146103405761010b565b806389a30271146102465780638da5cb5b14610264578063af57228714610282578063b1e9a3a81461029e5761010b565b80634d1f8202116100de5780634d1f8202146101ac5780635988a41a146101c8578063641400c5146101e657806376ee3793146102165761010b565b80632ca4690f146101105780633e0f1dab14610140578063407bd9c0146101705780634714a9941461018e575b600080fd5b61012a60048036038101906101259190611307565b610370565b604051610137919061134d565b60405180910390f35b61015a60048036038101906101559190611307565b610403565b604051610167919061134d565b60405180910390f35b61017861041b565b60405161018591906113c7565b60405180910390f35b61019661043f565b6040516101a3919061134d565b60405180910390f35b6101c660048036038101906101c1919061140e565b610446565b005b6101d06107fb565b6040516101dd919061134d565b60405180910390f35b61020060048036038101906101fb9190611307565b610802565b60405161020d919061134d565b60405180910390f35b610230600480360381019061022b9190611307565b61081a565b60405161023d919061134d565b60405180910390f35b61024e610832565b60405161025b91906113c7565b60405180910390f35b61026c610856565b604051610279919061144a565b60405180910390f35b61029c60048036038101906102979190611520565b61087a565b005b6102a6610a83565b6040516102b391906113c7565b60405180910390f35b6102d660048036038101906102d1919061140e565b610aa7565b005b6102f260048036038101906102ed919061140e565b610c35565b005b61030e60048036038101906103099190611520565b610feb565b005b61032a60048036038101906103259190611307565b6111f5565b604051610337919061134d565b60405180910390f35b61035a60048036038101906103559190611307565b61120d565b604051610367919061134d565b60405180910390f35b6000600360008373ffffffffffffffffffffffffffffffffffffffff1673ffffffffffffffffffffffffffffffffffffffff16815260200190815260200160002054600160008473ffffffffffffffffffffffffffffffffffffffff1673ffffffffffffffffffffffffffffffffffffffff168152602001908152602001600020546103fc91906115d0565b9050919050565b60016020528060005260406000206000915090505481565b7f000000000000000000000000000000000000000000000000000000000000000081565b626acfc081565b60008111610489576040517f08c379a000000000000000000000000000000000000000000000000000000000815260040161048090611661565b60405180910390fd5b6000803373ffffffffffffffffffffffffffffffffffffffff1673ffffffffffffffffffffffffffffffffffffffff1681526020019081526020016000205481600260003373ffffffffffffffffffffffffffffffffffffffff1673ffffffffffffffffffffffffffffffffffffffff168152602001908152602001600020546105139190611681565b1115610554576040517f08c379a000000000000000000000000000000000000000000000000000000000815260040161054b90611701565b60405180910390fd5b80600260003373ffffffffffffffffffffffffffffffffffffffff1673ffffffffffffffffffffffffffffffffffffffff16815260200190815260200160002060008282546105a39190611681565b925050819055506000620f4240620dbba0836105bf9190611721565b6105c99190611792565b90507f000000000000000000000000000000000000000000000000000000000000000073ffffffffffffffffffffffffffffffffffffffff166323b872dd337f0000000000000000000000000000000000000000000000000000000000000000856040518463ffffffff1660e01b8152600401610648939291906117c3565b6020604051808303816000875af1158015610667573d6000803e3d6000fd5b505050506040513d601f19601f8201168201806040525081019061068b9190611832565b6106ca576040517f08c379a00000000000000000000000000000000000000000000000000000000081526004016106c1906118ab565b60405180910390fd5b7f000000000000000000000000000000000000000000000000000000000000000073ffffffffffffffffffffffffffffffffffffffff1663a9059cbb33836040518363ffffffff1660e01b81526004016107259291906118cb565b6020604051808303816000875af1158015610744573d6000803e3d6000fd5b505050506040513d601f19601f820116820180604052508101906107689190611832565b6107a7576040517f08c379a000000000000000000000000000000000000000000000000000000000815260040161079e90611940565b60405180910390fd5b3373ffffffffffffffffffffffffffffffffffffffff167f8d400643fa1ccaba7ce092175917c6d7087e296293a5d0de32bccb310f4774ab83836040516107ef9291906119ac565b60405180910390a25050565b620dbba081565b60026020528060005260406000206000915090505481565b60036020528060005260406000206000915090505481565b7f000000000000000000000000000000000000000000000000000000000000000081565b7f000000000000000000000000000000000000000000000000000000000000000081565b7f000000000000000000000000000000000000000000000000000000000000000073ffffffffffffffffffffffffffffffffffffffff163373ffffffffffffffffffffffffffffffffffffffff1614610908576040517f08c379a00000000000000000000000000000000000000000000000000000000081526004016108ff90611a34565b60405180910390fd5b818190508484905014610950576040517f08c379a000000000000000000000000000000000000000000000000000000000815260040161094790611aa0565b60405180910390fd5b60005b84849050811015610a7c5782828281811061097157610970611ac0565b5b9050602002013560008087878581811061098e5761098d611ac0565b5b90506020020160208101906109a39190611307565b73ffffffffffffffffffffffffffffffffffffffff1673ffffffffffffffffffffffffffffffffffffffff168152602001908152602001600020819055508484828181106109f4576109f3611ac0565b5b9050602002016020810190610a099190611307565b73ffffffffffffffffffffffffffffffffffffffff167f26762b82a4694940483daec4434420f79d887df276154ef98b0ff8c4a36a6430848484818110610a5357610a52611ac0565b5b90506020020135604051610a679190611aef565b60405180910390a28080600101915050610953565b5050505050565b7f000000000000000000000000000000000000000000000000000000000000000081565b7f000000000000000000000000000000000000000000000000000000000000000073ffffffffffffffffffffffffffffffffffffffff163373ffffffffffffffffffffffffffffffffffffffff1614610b35576040517f08c379a0000000000000000000000000000000000000000000000000000000008152600401610b2c90611a34565b60405180910390fd5b7f000000000000000000000000000000000000000000000000000000000000000073ffffffffffffffffffffffffffffffffffffffff1663a9059cbb7f0000000000000000000000000000000000000000000000000000000000000000836040518363ffffffff1660e01b8152600401610bb09291906118cb565b6020604051808303816000875af1158015610bcf573d6000803e3d6000fd5b505050506040513d601f19601f82011682018060405250810190610bf39190611832565b610c32576040517f08c379a0000000000000000000000000000000000000000000000000000000008152600401610c2990611b69565b60405180910390fd5b50565b60008111610c78576040517f08c379a0000000000000000000000000000000000000000000000000000000008152600401610c6f90611661565b60405180910390fd5b600160003373ffffffffffffffffffffffffffffffffffffffff1673ffffffffffffffffffffffffffffffffffffffff1681526020019081526020016000205481600360003373ffffffffffffffffffffffffffffffffffffffff1673ffffffffffffffffffffffffffffffffffffffff16815260200190815260200160002054610d039190611681565b1115610d44576040517f08c379a0000000000000000000000000000000000000000000000000000000008152600401610d3b90611701565b60405180910390fd5b80600360003373ffffffffffffffffffffffffffffffffffffffff1673ffffffffffffffffffffffffffffffffffffffff1681526020019081526020016000206000828254610d939190611681565b925050819055506000620f4240626acfc083610daf9190611721565b610db99190611792565b90507f000000000000000000000000000000000000000000000000000000000000000073ffffffffffffffffffffffffffffffffffffffff166323b872dd337f0000000000000000000000000000000000000000000000000000000000000000856040518463ffffffff1660e01b8152600401610e38939291906117c3565b6020604051808303816000875af1158015610e57573d6000803e3d6000fd5b505050506040513d601f19601f82011682018060405250810190610e7b9190611832565b610eba576040517f08c379a0000000000000000000000000000000000000000000000000000000008152600401610eb190611bd5565b60405180910390fd5b7f000000000000000000000000000000000000000000000000000000000000000073ffffffffffffffffffffffffffffffffffffffff1663a9059cbb33836040518363ffffffff1660e01b8152600401610f159291906118cb565b6020604051808303816000875af1158015610f34573d6000803e3d6000fd5b505050506040513d601f19601f82011682018060405250810190610f589190611832565b610f97576040517f08c379a0000000000000000000000000000000000000000000000000000000008152600401610f8e90611940565b60405180910390fd5b3373ffffffffffffffffffffffffffffffffffffffff167f8d400643fa1ccaba7ce092175917c6d7087e296293a5d0de32bccb310f4774ab8383604051610fdf929190611c41565b60405180910390a25050565b7f000000000000000000000000000000000000000000000000000000000000000073ffffffffffffffffffffffffffffffffffffffff163373ffffffffffffffffffffffffffffffffffffffff1614611079576040517f08c379a000000000000000000000000000000000000000000000000000000000815260040161107090611a34565b60405180910390fd5b8181905084849050146110c1576040517f08c379a00000000000000000000000000000000000000000000000000000000081526004016110b890611aa0565b60405180910390fd5b60005b848490508110156111ee578282828181106110e2576110e1611ac0565b5b9050602002013560016000878785818110611100576110ff611ac0565b5b90506020020160208101906111159190611307565b73ffffffffffffffffffffffffffffffffffffffff1673ffffffffffffffffffffffffffffffffffffffff1681526020019081526020016000208190555084848281811061116657611165611ac0565b5b905060200201602081019061117b9190611307565b73ffffffffffffffffffffffffffffffffffffffff167f26762b82a4694940483daec4434420f79d887df276154ef98b0ff8c4a36a64308484848181106111c5576111c4611ac0565b5b905060200201356040516111d99190611c7d565b60405180910390a280806001019150506110c4565b5050505050565b60006020528060005260406000206000915090505481565b6000600260008373ffffffffffffffffffffffffffffffffffffffff1673ffffffffffffffffffffffffffffffffffffffff168152602001908152602001600020546000808473ffffffffffffffffffffffffffffffffffffffff1673ffffffffffffffffffffffffffffffffffffffff1681526020019081526020016000205461129891906115d0565b9050919050565b600080fd5b600080fd5b600073ffffffffffffffffffffffffffffffffffffffff82169050919050565b60006112d4826112a9565b9050919050565b6112e4816112c9565b81146112ef57600080fd5b50565b600081359050611301816112db565b92915050565b60006020828403121561131d5761131c61129f565b5b600061132b848285016112f2565b91505092915050565b6000819050919050565b61134781611334565b82525050565b6000602082019050611362600083018461133e565b92915050565b6000819050919050565b600061138d611388611383846112a9565b611368565b6112a9565b9050919050565b600061139f82611372565b9050919050565b60006113b182611394565b9050919050565b6113c1816113a6565b82525050565b60006020820190506113dc60008301846113b8565b92915050565b6113eb81611334565b81146113f657600080fd5b50565b600081359050611408816113e2565b92915050565b6000602082840312156114245761142361129f565b5b6000611432848285016113f9565b91505092915050565b611444816112c9565b82525050565b600060208201905061145f600083018461143b565b92915050565b600080fd5b600080fd5b600080fd5b60008083601f84011261148a57611489611465565b5b8235905067ffffffffffffffff8111156114a7576114a661146a565b5b6020830191508360208202830111156114c3576114c261146f565b5b9250929050565b60008083601f8401126114e0576114df611465565b5b8235905067ffffffffffffffff8111156114fd576114fc61146a565b5b6020830191508360208202830111156115195761151861146f565b5b9250929050565b6000806000806040858703121561153a5761153961129f565b5b600085013567ffffffffffffffff811115611558576115576112a4565b5b61156487828801611474565b9450945050602085013567ffffffffffffffff811115611587576115866112a4565b5b611593878288016114ca565b925092505092959194509250565b7f4e487b7100000000000000000000000000000000000000000000000000000000600052601160045260246000fd5b60006115db82611334565b91506115e683611334565b92508282039050818111156115fe576115fd6115a1565b5b92915050565b600082825260208201905092915050565b7f496e76616c696420616d6f756e74000000000000000000000000000000000000600082015250565b600061164b600e83611604565b915061165682611615565b602082019050919050565b6000602082019050818103600083015261167a8161163e565b9050919050565b600061168c82611334565b915061169783611334565b92508282019050808211156116af576116ae6115a1565b5b92915050565b7f45786365656473206c696d697400000000000000000000000000000000000000600082015250565b60006116eb600d83611604565b91506116f6826116b5565b602082019050919050565b6000602082019050818103600083015261171a816116de565b9050919050565b600061172c82611334565b915061173783611334565b925082820261174581611334565b9150828204841483151761175c5761175b6115a1565b5b5092915050565b7f4e487b7100000000000000000000000000000000000000000000000000000000600052601260045260246000fd5b600061179d82611334565b91506117a883611334565b9250826117b8576117b7611763565b5b828204905092915050565b60006060820190506117d8600083018661143b565b6117e5602083018561143b565b6117f2604083018461133e565b949350505050565b60008115159050919050565b61180f816117fa565b811461181a57600080fd5b50565b60008151905061182c81611806565b92915050565b6000602082840312156118485761184761129f565b5b60006118568482850161181d565b91505092915050565b7f515344207472616e73666572206661696c656400000000000000000000000000600082015250565b6000611895601383611604565b91506118a08261185f565b602082019050919050565b600060208201905081810360008301526118c481611888565b9050919050565b60006040820190506118e0600083018561143b565b6118ed602083018461133e565b9392505050565b7f55534443207061796f7574206661696c65640000000000000000000000000000600082015250565b600061192a601283611604565b9150611935826118f4565b602082019050919050565b600060208201905081810360008301526119598161191d565b9050919050565b7f5153440000000000000000000000000000000000000000000000000000000000600082015250565b6000611996600383611604565b91506119a182611960565b602082019050919050565b600060608201905081810360008301526119c581611989565b90506119d4602083018561133e565b6119e1604083018461133e565b9392505050565b7f4e6f74206f776e65720000000000000000000000000000000000000000000000600082015250565b6000611a1e600983611604565b9150611a29826119e8565b602082019050919050565b60006020820190508181036000830152611a4d81611a11565b9050919050565b7f4c656e677468206d69736d617463680000000000000000000000000000000000600082015250565b6000611a8a600f83611604565b9150611a9582611a54565b602082019050919050565b60006020820190508181036000830152611ab981611a7d565b9050919050565b7f4e487b7100000000000000000000000000000000000000000000000000000000600052603260045260246000fd5b60006040820190508181036000830152611b0881611989565b9050611b17602083018461133e565b92915050565b7f5769746864726177206661696c65640000000000000000000000000000000000600082015250565b6000611b53600f83611604565b9150611b5e82611b1d565b602082019050919050565b60006020820190508181036000830152611b8281611b46565b9050919050565b7f515254207472616e73666572206661696c656400000000000000000000000000600082015250565b6000611bbf601383611604565b9150611bca82611b89565b602082019050919050565b60006020820190508181036000830152611bee81611bb2565b9050919050565b7f5152540000000000000000000000000000000000000000000000000000000000600082015250565b6000611c2b600383611604565b9150611c3682611bf5565b602082019050919050565b60006060820190508181036000830152611c5a81611c1e565b9050611c69602083018561133e565b611c76604083018461133e565b9392505050565b60006040820190508181036000830152611c9681611c1e565b9050611ca5602083018461133e565b9291505056fea2646970667358221220a051eb6674b2d6b99bed396846aa0d0b4f1e884b952f698b09588e0aa057549e64736f6c634300081c0033",
          "opcodes": "PUSH2 0x100 PUSH1 0x40 MSTORE CALLVALUE DUP1 ISZERO PUSH2 0x11 JUMPI PUSH1 0x0 DUP1 REVERT JUMPDEST POP PUSH1 0x40 MLOAD PUSH2 0x1F28 CODESIZE SUB DUP1 PUSH2 0x1F28 DUP4 CODECOPY DUP2 DUP2 ADD PUSH1 0x40 MSTORE DUP2 ADD SWAP1 PUSH2 0x33 SWAP2 SWAP1 PUSH2 0x16E JUMP JUMPDEST DUP3 PUSH20 0xFFFFFFFFFFFFFFFFFFFFFFFFFFFFFFFFFFFFFFFF AND PUSH1 0x80 DUP2 PUSH20 0xFFFFFFFFFFFFFFFFFFFFFFFFFFFFFFFFFFFFFFFF AND DUP2 MSTORE POP POP DUP2 PUSH20 0xFFFFFFFFFFFFFFFFFFFFFFFFFFFFFFFFFFFFFFFF AND PUSH1 0xA0 DUP2 PUSH20 0xFFFFFFFFFFFFFFFFFFFFFFFFFFFFFFFFFFFFFFFF AND DUP2 MSTORE POP POP DUP1 PUSH20 0xFFFFFFFFFFFFFFFFFFFFFFFFFFFFFFFFFFFFFFFF AND PUSH1 0xC0 DUP2 PUSH20 0xFFFFFFFFFFFFFFFFFFFFFFFFFFFFFFFFFFFFFFFF AND DUP2 MSTORE POP POP CALLER PUSH20 0xFFFFFFFFFFFFFFFFFFFFFFFFFFFFFFFFFFFFFFFF AND PUSH1 0xE0 DUP2 PUSH20 0xFFFFFFFFFFFFFFFFFFFFFFFFFFFFFFFFFFFFFFFF AND DUP2 MSTORE POP POP POP POP POP PUSH2 0x1C1 JUMP JUMPDEST PUSH1 0x0 DUP1 REVERT JUMPDEST PUSH1 0x0 PUSH20 0xFFFFFFFFFFFFFFFFFFFFFFFFFFFFFFFFFFFFFFFF DUP3 AND SWAP1 POP SWAP2 SWAP1 POP JUMP JUMPDEST PUSH1 0x0 PUSH2 0x13B DUP3 PUSH2 0x110 JUMP JUMPDEST SWAP1 POP SWAP2 SWAP1 POP JUMP JUMPDEST PUSH2 0x14B DUP2 PUSH2 0x130 JUMP JUMPDEST DUP2 EQ PUSH2 0x156 JUMPI PUSH1 0x0 DUP1 REVERT JUMPDEST POP JUMP JUMPDEST PUSH1 0x0 DUP2 MLOAD SWAP1 POP PUSH2 0x168 DUP2 PUSH2 0x142 JUMP JUMPDEST SWAP3 SWAP2 POP POP JUMP JUMPDEST PUSH1 0x0 DUP1 PUSH1 0x0 PUSH1 0x60 DUP5 DUP7 SUB SLT ISZERO PUSH2 0x187 JUMPI PUSH2 0x186 PUSH2 0x10B JUMP JUMPDEST JUMPDEST PUSH1 0x0 PUSH2 0x195 DUP7 DUP3 DUP8 ADD PUSH2 0x159 JUMP JUMPDEST SWAP4 POP POP PUSH1 0x20 PUSH2 0x1A6 DUP7 DUP3 DUP8 ADD PUSH2 0x159 JUMP JUMPDEST SWAP3 POP POP PUSH1 0x40 PUSH2 0x1B7 DUP7 DUP3 DUP8 ADD PUSH2 0x159 JUMP JUMPDEST SWAP2 POP POP SWAP3 POP SWAP3 POP SWAP3 JUMP JUMPDEST PUSH1 0x80 MLOAD PUSH1 0xA0 MLOAD PUSH1 0xC0 MLOAD PUSH1 0xE0 MLOAD PUSH2 0x1CE1 PUSH2 0x247 PUSH1 0x0 CODECOPY PUSH1 0x0 DUP2 DUP2 PUSH2 0x60A ADD MSTORE DUP2 DUP2 PUSH2 0x858 ADD MSTORE DUP2 DUP2 PUSH2 0x87C ADD MSTORE DUP2 DUP2 PUSH2 0xAA9 ADD MSTORE DUP2 DUP2 PUSH2 0xB73 ADD MSTORE DUP2 DUP2 PUSH2 0xDFA ADD MSTORE PUSH2 0xFED ADD MSTORE PUSH1 0x0 DUP2 DUP2 PUSH2 0x6CC ADD MSTORE DUP2 DUP2 PUSH2 0x834 ADD MSTORE DUP2 DUP2 PUSH2 0xB37 ADD MSTORE PUSH2 0xEBC ADD MSTORE PUSH1 0x0 DUP2 DUP2 PUSH2 0xA85 ADD MSTORE PUSH2 0xDBD ADD MSTORE PUSH1 0x0 DUP2 DUP2 PUSH2 0x41D ADD MSTORE PUSH2 0x5CD ADD MSTORE PUSH2 0x1CE1 PUSH1 0x0 RETURN INVALID PUSH1 0x80 PUSH1 0x40 MSTORE CALLVALUE DUP1 ISZERO PUSH2 0x10 JUMPI PUSH1 0x0 DUP1 REVERT JUMPDEST POP PUSH1 0x4 CALLDATASIZE LT PUSH2 0x10B JUMPI PUSH1 0x0 CALLDATALOAD PUSH1 0xE0 SHR DUP1 PUSH4 0x89A30271 GT PUSH2 0xA2 JUMPI DUP1 PUSH4 0xC3520788 GT PUSH2 0x71 JUMPI DUP1 PUSH4 0xC3520788 EQ PUSH2 0x2BC JUMPI DUP1 PUSH4 0xE9B9CA6C EQ PUSH2 0x2D8 JUMPI DUP1 PUSH4 0xEFD03498 EQ PUSH2 0x2F4 JUMPI DUP1 PUSH4 0xF363CD5F EQ PUSH2 0x310 JUMPI DUP1 PUSH4 0xF4DB26EC EQ PUSH2 0x340 JUMPI PUSH2 0x10B JUMP JUMPDEST DUP1 PUSH4 0x89A30271 EQ PUSH2 0x246 JUMPI DUP1 PUSH4 0x8DA5CB5B EQ PUSH2 0x264 JUMPI DUP1 PUSH4 0xAF572287 EQ PUSH2 0x282 JUMPI DUP1 PUSH4 0xB1E9A3A8 EQ PUSH2 0x29E JUMPI PUSH2 0x10B JUMP JUMPDEST DUP1 PUSH4 0x4D1F8202 GT PUSH2 0xDE JUMPI DUP1 PUSH4 0x4D1F8202 EQ PUSH2 0x1AC JUMPI DUP1 PUSH4 0x5988A41A EQ PUSH2 0x1C8 JUMPI DUP1 PUSH4 0x641400C5 EQ PUSH2 0x1E6 JUMPI DUP1 PUSH4 0x76EE3793 EQ PUSH2 0x216 JUMPI PUSH2 0x10B JUMP JUMPDEST DUP1 PUSH4 0x2CA4690F EQ PUSH2 0x110 JUMPI DUP1 PUSH4 0x3E0F1DAB EQ PUSH2 0x140 JUMPI DUP1 PUSH4 0x407BD9C0 EQ PUSH2 0x170 JUMPI DUP1 PUSH4 0x4714A994 EQ PUSH2 0x18E JUMPI JUMPDEST PUSH1 0x0 DUP1 REVERT JUMPDEST PUSH2 0x12A PUSH1 0x4 DUP1 CALLDATASIZE SUB DUP2 ADD SWAP1 PUSH2 0x125 SWAP2 SWAP1 PUSH2 0x1307 JUMP JUMPDEST PUSH2 0x370 JUMP JUMPDEST PUSH1 0x40 MLOAD PUSH2 0x137 SWAP2 SWAP1 PUSH2 0x134D JUMP JUMPDEST PUSH1 0x40 MLOAD DUP1 SWAP2 SUB SWAP1 RETURN JUMPDEST PUSH2 0x15A PUSH1 0x4 DUP1 CALLDATASIZE SUB DUP2 ADD SWAP1 PUSH2 0x155 SWAP2 SWAP1 PUSH2 0x1307 JUMP JUMPDEST PUSH2 0x403 JUMP JUMPDEST PUSH1 0x40 MLOAD PUSH2 0x167 SWAP2 SWAP1 PUSH2 0x134D JUMP JUMPDEST PUSH1 0x40 MLOAD DUP1 SWAP2 SUB SWAP1 RETURN JUMPDEST PUSH2 0x178 PUSH2 0x41B JUMP JUMPDEST PUSH1 0x40 MLOAD PUSH2 0x185 SWAP2 SWAP1 PUSH2 0x13C7 JUMP JUMPDEST PUSH1 0x40 MLOAD DUP1 SWAP2 SUB SWAP1 RETURN JUMPDEST PUSH2 0x196 PUSH2 0x43F JUMP JUMPDEST PUSH1 0x40 MLOAD PUSH2 0x1A3 SWAP2 SWAP1 PUSH2 0x134D JUMP JUMPDEST PUSH1 0x40 MLOAD DUP1 SWAP2 SUB SWAP1 RETURN JUMPDEST PUSH2 0x1C6 PUSH1 0x4 DUP1 CALLDATASIZE SUB DUP2 ADD SWAP1 PUSH2 0x1C1 SWAP2 SWAP1 PUSH2 0x140E JUMP JUMPDEST PUSH2 0x446 JUMP JUMPDEST STOP JUMPDEST PUSH2 0x1D0 PUSH2 0x7FB JUMP JUMPDEST PUSH1 0x40 MLOAD PUSH2 0x1DD SWAP2 SWAP1 PUSH2 0x134D JUMP JUMPDEST PUSH1 0x40 MLOAD DUP1 SWAP2 SUB SWAP1 RETURN JUMPDEST PUSH2 0x200 PUSH1 0x4 DUP1 CALLDATASIZE SUB DUP2 ADD SWAP1 PUSH2 0x1FB SWAP2 SWAP1 PUSH2 0x1307 JUMP JUMPDEST PUSH2 0x802 JUMP JUMPDEST PUSH1 0x40 MLOAD PUSH2 0x20D SWAP2 SWAP1 PUSH2 0x134D JUMP JUMPDEST PUSH1 0x40 MLOAD DUP1 SWAP2 SUB SWAP1 RETURN JUMPDEST PUSH2 0x230 PUSH1 0x4 DUP1 CALLDATASIZE SUB DUP2 ADD SWAP1 PUSH2 0x22B SWAP2 SWAP1 PUSH2 0x1307 JUMP JUMPDEST PUSH2 0x81A JUMP JUMPDEST PUSH1 0x40 MLOAD PUSH2 0x23D SWAP2 SWAP1 PUSH2 0x134D JUMP JUMPDEST PUSH1 0x40 MLOAD DUP1 SWAP2 SUB SWAP1 RETURN JUMPDEST PUSH2 0x24E PUSH2 0x832 JUMP JUMPDEST PUSH1 0x40 MLOAD PUSH2 0x25B SWAP2 SWAP1 PUSH2 0x13C7 JUMP JUMPDEST PUSH1 0x40 MLOAD DUP1 SWAP2 SUB SWAP1 RETURN JUMPDEST PUSH2 0x26C PUSH2 0x856 JUMP JUMPDEST PUSH1 0x40 MLOAD PUSH2 0x279 SWAP2 SWAP1 PUSH2 0x144A JUMP JUMPDEST PUSH1 0x40 MLOAD DUP1 SWAP2 SUB SWAP1 RETURN JUMPDEST PUSH2 0x29C PUSH1 0x4 DUP1 CALLDATASIZE SUB DUP2 ADD SWAP1 PUSH2 0x297 SWAP2 SWAP1 PUSH2 0x1520 JUMP JUMPDEST PUSH2 0x87A JUMP JUMPDEST STOP JUMPDEST PUSH2 0x2A6 PUSH2 0xA83 JUMP JUMPDEST PUSH1 0x40 MLOAD PUSH2 0x2B3 SWAP2 SWAP1 PUSH2 0x13C7 JUMP JUMPDEST PUSH1 0x40 MLOAD DUP1 SWAP2 SUB SWAP1 RETURN JUMPDEST PUSH2 0x2D6 PUSH1 0x4 DUP1 CALLDATASIZE SUB DUP2 ADD SWAP1 PUSH2 0x2D1 SWAP2 SWAP1 PUSH2 0x140E JUMP JUMPDEST PUSH2 0xAA7 JUMP JUMPDEST STOP JUMPDEST PUSH2 0x2F2 PUSH1 0x4 DUP1 CALLDATASIZE SUB DUP2 ADD SWAP1 PUSH2 0x2ED SWAP2 SWAP1 PUSH2 0x140E JUMP JUMPDEST PUSH2 0xC35 JUMP JUMPDEST STOP JUMPDEST PUSH2 0x30E PUSH1 0x4 DUP1 CALLDATASIZE SUB DUP2 ADD SWAP1 PUSH2 0x309 SWAP2 SWAP1 PUSH2 0x1520 JUMP JUMPDEST PUSH2 0xFEB JUMP JUMPDEST STOP JUMPDEST PUSH2 0x32A PUSH1 0x4 DUP1 CALLDATASIZE SUB DUP2 ADD SWAP1 PUSH2 0x325 SWAP2 SWAP1 PUSH2 0x1307 JUMP JUMPDEST PUSH2 0x11F5 JUMP JUMPDEST PUSH1 0x40 MLOAD PUSH2 0x337 SWAP2 SWAP1 PUSH2 0x134D JUMP JUMPDEST PUSH1 0x40 MLOAD DUP1 SWAP2 SUB SWAP1 RETURN JUMPDEST PUSH2 0x35A PUSH1 0x4 DUP1 CALLDATASIZE SUB DUP2 ADD SWAP1 PUSH2 0x355 SWAP2 SWAP1 PUSH2 0x1307 JUMP JUMPDEST PUSH2 0x120D JUMP JUMPDEST PUSH1 0x40 MLOAD PUSH2 0x367 SWAP2 SWAP1 PUSH2 0x134D JUMP JUMPDEST PUSH1 0x40 MLOAD DUP1 SWAP2 SUB SWAP1 RETURN JUMPDEST PUSH1 0x0 PUSH1 0x3 PUSH1 0x0 DUP4 PUSH20 0xFFFFFFFFFFFFFFFFFFFFFFFFFFFFFFFFFFFFFFFF AND PUSH20 0xFFFFFFFFFFFFFFFFFFFFFFFFFFFFFFFFFFFFFFFF AND DUP2 MSTORE PUSH1 0x20 ADD SWAP1 DUP2 MSTORE PUSH1 0x20 ADD PUSH1 0x0 KECCAK256 SLOAD PUSH1 0x1 PUSH1 0x0 DUP5 PUSH20 0xFFFFFFFFFFFFFFFFFFFFFFFFFFFFFFFFFFFFFFFF AND PUSH20 0xFFFFFFFFFFFFFFFFFFFFFFFFFFFFFFFFFFFFFFFF AND DUP2 MSTORE PUSH1 0x20 ADD SWAP1 DUP2 MSTORE PUSH1 0x20 ADD PUSH1 0x0 KECCAK256 SLOAD PUSH2 0x3FC SWAP2 SWAP1 PUSH2 0x15D0 JUMP JUMPDEST SWAP1 POP SWAP2 SWAP1 POP JUMP JUMPDEST PUSH1 0x1 PUSH1 0x20 MSTORE DUP1 PUSH1 0x0 MSTORE PUSH1 0x40 PUSH1 0x0 KECCAK256 PUSH1 0x0 SWAP2 POP SWAP1 POP SLOAD DUP2 JUMP JUMPDEST PUSH32 0x0 DUP2 JUMP JUMPDEST PUSH3 0x6ACFC0 DUP2 JUMP JUMPDEST PUSH1 0x0 DUP2 GT PUSH2 0x489 JUMPI PUSH1 0x40 MLOAD PUSH32 0x8C379A000000000000000000000000000000000000000000000000000000000 DUP2 MSTORE PUSH1 0x4 ADD PUSH2 0x480 SWAP1 PUSH2 0x1661 JUMP JUMPDEST PUSH1 0x40 MLOAD DUP1 SWAP2 SUB SWAP1 REVERT JUMPDEST PUSH1 0x0 DUP1 CALLER PUSH20 0xFFFFFFFFFFFFFFFFFFFFFFFFFFFFFFFFFFFFFFFF AND PUSH20 0xFFFFFFFFFFFFFFFFFFFFFFFFFFFFFFFFFFFFFFFF AND DUP2 MSTORE PUSH1 0x20 ADD SWAP1 DUP2 MSTORE PUSH1 0x20 ADD PUSH1 0x0 KECCAK256 SLOAD DUP2 PUSH1 0x2 PUSH1 0x0 CALLER PUSH20 0xFFFFFFFFFFFFFFFFFFFFFFFFFFFFFFFFFFFFFFFF AND PUSH20 0xFFFFFFFFFFFFFFFFFFFFFFFFFFFFFFFFFFFFFFFF AND DUP2 MSTORE PUSH1 0x20 ADD SWAP1 DUP2 MSTORE PUSH1 0x20 ADD PUSH1 0x0 KECCAK256 SLOAD PUSH2 0x513 SWAP2 SWAP1 PUSH2 0x1681 JUMP JUMPDEST GT ISZERO PUSH2 0x554 JUMPI PUSH1 0x40 MLOAD PUSH32 0x8C379A000000000000000000000000000000000000000000000000000000000 DUP2 MSTORE PUSH1 0x4 ADD PUSH2 0x54B SWAP1 PUSH2 0x1701 JUMP JUMPDEST PUSH1 0x40 MLOAD DUP1 SWAP2 SUB SWAP1 REVERT JUMPDEST DUP1 PUSH1 0x2 PUSH1 0x0 CALLER PUSH20 0xFFFFFFFFFFFFFFFFFFFFFFFFFFFFFFFFFFFFFFFF AND PUSH20 0xFFFFFFFFFFFFFFFFFFFFFFFFFFFFFFFFFFFFFFFF AND DUP2 MSTORE PUSH1 0x20 ADD SWAP1 DUP2 MSTORE PUSH1 0x20 ADD PUSH1 0x0 KECCAK256 PUSH1 0x0 DUP3 DUP3 SLOAD PUSH2 0x5A3 SWAP2 SWAP1 PUSH2 0x1681 JUMP JUMPDEST SWAP3 POP POP DUP2 SWAP1 SSTORE POP PUSH1 0x0 PUSH3 0xF4240 PUSH3 0xDBBA0 DUP4 PUSH2 0x5BF SWAP2 SWAP1 PUSH2 0x1721 JUMP JUMPDEST PUSH2 0x5C9 SWAP2 SWAP1 PUSH2 0x1792 JUMP JUMPDEST SWAP1 POP PUSH32 0x0 PUSH20 0xFFFFFFFFFFFFFFFFFFFFFFFFFFFFFFFFFFFFFFFF AND PUSH4 0x23B872DD CALLER PUSH32 0x0 DUP6 PUSH1 0x40 MLOAD DUP5 PUSH4 0xFFFFFFFF AND PUSH1 0xE0 SHL DUP2 MSTORE PUSH1 0x4 ADD PUSH2 0x648 SWAP4 SWAP3 SWAP2 SWAP1 PUSH2 0x17C3 JUMP JUMPDEST PUSH1 0x20 PUSH1 0x40 MLOAD DUP1 DUP4 SUB DUP2 PUSH1 0x0 DUP8 GAS CALL ISZERO DUP1 ISZERO PUSH2 0x667 JUMPI RETURNDATASIZE PUSH1 0x0 DUP1 RETURNDATACOPY RETURNDATASIZE PUSH1 0x0 REVERT JUMPDEST POP POP POP POP PUSH1 0x40 MLOAD RETURNDATASIZE PUSH1 0x1F NOT PUSH1 0x1F DUP3 ADD AND DUP3 ADD DUP1 PUSH1 0x40 MSTORE POP DUP2 ADD SWAP1 PUSH2 0x68B SWAP2 SWAP1 PUSH2 0x1832 JUMP JUMPDEST PUSH2 0x6CA JUMPI PUSH1 0x40 MLOAD PUSH32 0x8C379A000000000000000000000000000000000000000000000000000000000 DUP2 MSTORE PUSH1 0x4 ADD PUSH2 0x6C1 SWAP1 PUSH2 0x18AB JUMP JUMPDEST PUSH1 0x40 MLOAD DUP1 SWAP2 SUB SWAP1 REVERT JUMPDEST PUSH32 0x0 PUSH20 0xFFFFFFFFFFFFFFFFFFFFFFFFFFFFFFFFFFFFFFFF AND PUSH4 0xA9059CBB CALLER DUP4 PUSH1 0x40 MLOAD DUP4 PUSH4 0xFFFFFFFF AND PUSH1 0xE0 SHL DUP2 MSTORE PUSH1 0x4 ADD PUSH2 0x725 SWAP3 SWAP2 SWAP1 PUSH2 0x18CB JUMP JUMPDEST PUSH1 0x20 PUSH1 0x40 MLOAD DUP1 DUP4 SUB DUP2 PUSH1 0x0 DUP8 GAS CALL ISZERO DUP1 ISZERO PUSH2 0x744 JUMPI RETURNDATASIZE PUSH1 0x0 DUP1 RETURNDATACOPY RETURNDATASIZE PUSH1 0x0 REVERT JUMPDEST POP POP POP POP PUSH1 0x40 MLOAD RETURNDATASIZE PUSH1 0x1F NOT PUSH1 0x1F DUP3 ADD AND DUP3 ADD DUP1 PUSH1 0x40 MSTORE POP DUP2 ADD SWAP1 PUSH2 0x768 SWAP2 SWAP1 PUSH2 0x1832 JUMP JUMPDEST PUSH2 0x7A7 JUMPI PUSH1 0x40 MLOAD PUSH32 0x8C379A000000000000000000000000000000000000000000000000000000000 DUP2 MSTORE PUSH1 0x4 ADD PUSH2 0x79E SWAP1 PUSH2 0x1940 JUMP JUMPDEST PUSH1 0x40 MLOAD DUP1 SWAP2 SUB SWAP1 REVERT JUMPDEST CALLER PUSH20 0xFFFFFFFFFFFFFFFFFFFFFFFFFFFFFFFFFFFFFFFF AND PUSH32 0x8D400643FA1CCABA7CE092175917C6D7087E296293A5D0DE32BCCB310F4774AB DUP4 DUP4 PUSH1 0x40 MLOAD PUSH2 0x7EF SWAP3 SWAP2 SWAP1 PUSH2 0x19AC JUMP JUMPDEST PUSH1 0x40 MLOAD DUP1 SWAP2 SUB SWAP1 LOG2 POP POP JUMP JUMPDEST PUSH3 0xDBBA0 DUP2 JUMP JUMPDEST PUSH1 0x2 PUSH1 0x20 MSTORE DUP1 PUSH1 0x0 MSTORE PUSH1 0x40 PUSH1 0x0 KECCAK256 PUSH1 0x0 SWAP2 POP SWAP1 POP SLOAD DUP2 JUMP JUMPDEST PUSH1 0x3 PUSH1 0x20 MSTORE DUP1 PUSH1 0x0 MSTORE PUSH1 0x40 PUSH1 0x0 KECCAK256 PUSH1 0x0 SWAP2 POP SWAP1 POP SLOAD DUP2 JUMP JUMPDEST PUSH32 0x0 DUP2 JUMP JUMPDEST PUSH32 0x0 DUP2 JUMP JUMPDEST PUSH32 0x0 PUSH20 0xFFFFFFFFFFFFFFFFFFFFFFFFFFFFFFFFFFFFFFFF AND CALLER PUSH20 0xFFFFFFFFFFFFFFFFFFFFFFFFFFFFFFFFFFFFFFFF AND EQ PUSH2 0x908 JUMPI PUSH1 0x40 MLOAD PUSH32 0x8C379A000000000000000000000000000000000000000000000000000000000 DUP2 MSTORE PUSH1 0x4 ADD PUSH2 0x8FF SWAP1 PUSH2 0x1A34 JUMP JUMPDEST PUSH1 0x40 MLOAD DUP1 SWAP2 SUB SWAP1 REVERT JUMPDEST DUP2 DUP2 SWAP1 POP DUP5 DUP5 SWAP1 POP EQ PUSH2 0x950 JUMPI PUSH1 0x40 MLOAD PUSH32 0x8C379A000000000000000000000000000000000000000000000000000000000 DUP2 MSTORE PUSH1 0x4 ADD PUSH2 0x947 SWAP1 PUSH2 0x1AA0 JUMP JUMPDEST PUSH1 0x40 MLOAD DUP1 SWAP2 SUB SWAP1 REVERT JUMPDEST PUSH1 0x0 JUMPDEST DUP5 DUP5 SWAP1 POP DUP2 LT ISZERO PUSH2 0xA7C JUMPI DUP3 DUP3 DUP3 DUP2 DUP2 LT PUSH2 0x971 JUMPI PUSH2 0x970 PUSH2 0x1AC0 JUMP JUMPDEST JUMPDEST SWAP1 POP PUSH1 0x20 MUL ADD CALLDATALOAD PUSH1 0x0 DUP1 DUP8 DUP8 DUP6 DUP2 DUP2 LT PUSH2 0x98E JUMPI PUSH2 0x98D PUSH2 0x1AC0 JUMP JUMPDEST JUMPDEST SWAP1 POP PUSH1 0x20 MUL ADD PUSH1 0x20 DUP2 ADD SWAP1 PUSH2 0x9A3 SWAP2 SWAP1 PUSH2 0x1307 JUMP JUMPDEST PUSH20 0xFFFFFFFFFFFFFFFFFFFFFFFFFFFFFFFFFFFFFFFF AND PUSH20 0xFFFFFFFFFFFFFFFFFFFFFFFFFFFFFFFFFFFFFFFF AND DUP2 MSTORE PUSH1 0x20 ADD SWAP1 DUP2 MSTORE PUSH1 0x20 ADD PUSH1 0x0 KECCAK256 DUP2 SWAP1 SSTORE POP DUP5 DUP5 DUP3 DUP2 DUP2 LT PUSH2 0x9F4 JUMPI PUSH2 0x9F3 PUSH2 0x1AC0 JUMP JUMPDEST JUMPDEST SWAP1 POP PUSH1 0x20 MUL ADD PUSH1 0x20 DUP2 ADD SWAP1 PUSH2 0xA09 SWAP2 SWAP1 PUSH2 0x1307 JUMP JUMPDEST PUSH20 0xFFFFFFFFFFFFFFFFFFFFFFFFFFFFFFFFFFFFFFFF AND PUSH32 0x26762B82A4694940483DAEC4434420F79D887DF276154EF98B0FF8C4A36A6430 DUP5 DUP5 DUP5 DUP2 DUP2 LT PUSH2 0xA53 JUMPI PUSH2 0xA52 PUSH2 0x1AC0 JUMP JUMPDEST JUMPDEST SWAP1 POP PUSH1 0x20 MUL ADD CALLDATALOAD PUSH1 0x40 MLOAD PUSH2 0xA67 SWAP2 SWAP1 PUSH2 0x1AEF JUMP JUMPDEST PUSH1 0x40 MLOAD DUP1 SWAP2 SUB SWAP1 LOG2 DUP1 DUP1 PUSH1 0x1 ADD SWAP2 POP POP PUSH2 0x953 JUMP JUMPDEST POP POP POP POP POP JUMP JUMPDEST PUSH32 0x0 DUP2 JUMP JUMPDEST PUSH32 0x0 PUSH20 0xFFFFFFFFFFFFFFFFFFFFFFFFFFFFFFFFFFFFFFFF AND CALLER PUSH20 0xFFFFFFFFFFFFFFFFFFFFFFFFFFFFFFFFFFFFFFFF AND EQ PUSH2 0xB35 JUMPI PUSH1 0x40 MLOAD PUSH32 0x8C379A000000000000000000000000000000000000000000000000000000000 DUP2 MSTORE PUSH1 0x4 ADD PUSH2 0xB2C SWAP1 PUSH2 0x1A34 JUMP JUMPDEST PUSH1 0x40 MLOAD DUP1 SWAP2 SUB SWAP1 REVERT JUMPDEST PUSH32 0x0 PUSH20 0xFFFFFFFFFFFFFFFFFFFFFFFFFFFFFFFFFFFFFFFF AND PUSH4 0xA9059CBB PUSH32 0x0 DUP4 PUSH1 0x40 MLOAD DUP4 PUSH4 0xFFFFFFFF AND PUSH1 0xE0 SHL DUP2 MSTORE PUSH1 0x4 ADD PUSH2 0xBB0 SWAP3 SWAP2 SWAP1 PUSH2 0x18CB JUMP JUMPDEST PUSH1 0x20 PUSH1 0x40 MLOAD DUP1 DUP4 SUB DUP2 PUSH1 0x0 DUP8 GAS CALL ISZERO DUP1 ISZERO PUSH2 0xBCF JUMPI RETURNDATASIZE PUSH1 0x0 DUP1 RETURNDATACOPY RETURNDATASIZE PUSH1 0x0 REVERT JUMPDEST POP POP POP POP PUSH1 0x40 MLOAD RETURNDATASIZE PUSH1 0x1F NOT PUSH1 0x1F DUP3 ADD AND DUP3 ADD DUP1 PUSH1 0x40 MSTORE POP DUP2 ADD SWAP1 PUSH2 0xBF3 SWAP2 SWAP1 PUSH2 0x1832 JUMP JUMPDEST PUSH2 0xC32 JUMPI PUSH1 0x40 MLOAD PUSH32 0x8C379A000000000000000000000000000000000000000000000000000000000 DUP2 MSTORE PUSH1 0x4 ADD PUSH2 0xC29 SWAP1 PUSH2 0x1B69 JUMP JUMPDEST PUSH1 0x40 MLOAD DUP1 SWAP2 SUB SWAP1 REVERT JUMPDEST POP JUMP JUMPDEST PUSH1 0x0 DUP2 GT PUSH2 0xC78 JUMPI PUSH1 0x40 MLOAD PUSH32 0x8C379A000000000000000000000000000000000000000000000000000000000 DUP2 MSTORE PUSH1 0x4 ADD PUSH2 0xC6F SWAP1 PUSH2 0x1661 JUMP JUMPDEST PUSH1 0x40 MLOAD DUP1 SWAP2 SUB SWAP1 REVERT JUMPDEST PUSH1 0x1 PUSH1 0x0 CALLER PUSH20 0xFFFFFFFFFFFFFFFFFFFFFFFFFFFFFFFFFFFFFFFF AND PUSH20 0xFFFFFFFFFFFFFFFFFFFFFFFFFFFFFFFFFFFFFFFF AND DUP2 MSTORE PUSH1 0x20 ADD SWAP1 DUP2 MSTORE PUSH1 0x20 ADD PUSH1 0x0 KECCAK256 SLOAD DUP2 PUSH1 0x3 PUSH1 0x0 CALLER PUSH20 0xFFFFFFFFFFFFFFFFFFFFFFFFFFFFFFFFFFFFFFFF AND PUSH20 0xFFFFFFFFFFFFFFFFFFFFFFFFFFFFFFFFFFFFFFFF AND DUP2 MSTORE PUSH1 0x20 ADD SWAP1 DUP2 MSTORE PUSH1 0x20 ADD PUSH1 0x0 KECCAK256 SLOAD PUSH2 0xD03 SWAP2 SWAP1 PUSH2 0x1681 JUMP JUMPDEST GT ISZERO PUSH2 0xD44 JUMPI PUSH1 0x40 MLOAD PUSH32 0x8C379A000000000000000000000000000000000000000000000000000000000 DUP2 MSTORE PUSH1 0x4 ADD PUSH2 0xD3B SWAP1 PUSH2 0x1701 JUMP JUMPDEST PUSH1 0x40 MLOAD DUP1 SWAP2 SUB SWAP1 REVERT JUMPDEST DUP1 PUSH1 0x3 PUSH1 0x0 CALLER PUSH20 0xFFFFFFFFFFFFFFFFFFFFFFFFFFFFFFFFFFFFFFFF AND PUSH20 0xFFFFFFFFFFFFFFFFFFFFFFFFFFFFFFFFFFFFFFFF AND DUP2 MSTORE PUSH1 0x20 ADD SWAP1 DUP2 MSTORE PUSH1 0x20 ADD PUSH1 0x0 KECCAK256 PUSH1 0x0 DUP3 DUP3 SLOAD PUSH2 0xD93 SWAP2 SWAP1 PUSH2 0x1681 JUMP JUMPDEST SWAP3 POP POP DUP2 SWAP1 SSTORE POP PUSH1 0x0 PUSH3 0xF4240 PUSH3 0x6ACFC0 DUP4 PUSH2 0xDAF SWAP2 SWAP1 PUSH2 0x1721 JUMP JUMPDEST PUSH2 0xDB9 SWAP2 SWAP1 PUSH2 0x1792 JUMP JUMPDEST SWAP1 POP PUSH32 0x0 PUSH20 0xFFFFFFFFFFFFFFFFFFFFFFFFFFFFFFFFFFFFFFFF AND PUSH4 0x23B872DD CALLER PUSH32 0x0 DUP6 PUSH1 0x40 MLOAD DUP5 PUSH4 0xFFFFFFFF AND PUSH1 0xE0 SHL DUP2 MSTORE PUSH1 0x4 ADD PUSH2 0xE38 SWAP4 SWAP3 SWAP2 SWAP1 PUSH2 0x17C3 JUMP JUMPDEST PUSH1 0x20 PUSH1 0x40 MLOAD DUP1 DUP4 SUB DUP2 PUSH1 0x0 DUP8 GAS CALL ISZERO DUP1 ISZERO PUSH2 0xE57 JUMPI RETURNDATASIZE PUSH1 0x0 DUP1 RETURNDATACOPY RETURNDATASIZE PUSH1 0x0 REVERT JUMPDEST POP POP POP POP PUSH1 0x40 MLOAD RETURNDATASIZE PUSH1 0x1F NOT PUSH1 0x1F DUP3 ADD AND DUP3 ADD DUP1 PUSH1 0x40 MSTORE POP DUP2 ADD SWAP1 PUSH2 0xE7B SWAP2 SWAP1 PUSH2 0x1832 JUMP JUMPDEST PUSH2 0xEBA JUMPI PUSH1 0x40 MLOAD PUSH32 0x8C379A000000000000000000000000000000000000000000000000000000000 DUP2 MSTORE PUSH1 0x4 ADD PUSH2 0xEB1 SWAP1 PUSH2 0x1BD5 JUMP JUMPDEST PUSH1 0x40 MLOAD DUP1 SWAP2 SUB SWAP1 REVERT JUMPDEST PUSH32 0x0 PUSH20 0xFFFFFFFFFFFFFFFFFFFFFFFFFFFFFFFFFFFFFFFF AND PUSH4 0xA9059CBB CALLER DUP4 PUSH1 0x40 MLOAD DUP4 PUSH4 0xFFFFFFFF AND PUSH1 0xE0 SHL DUP2 MSTORE PUSH1 0x4 ADD PUSH2 0xF15 SWAP3 SWAP2 SWAP1 PUSH2 0x18CB JUMP JUMPDEST PUSH1 0x20 PUSH1 0x40 MLOAD DUP1 DUP4 SUB DUP2 PUSH1 0x0 DUP8 GAS CALL ISZERO DUP1 ISZERO PUSH2 0xF34 JUMPI RETURNDATASIZE PUSH1 0x0 DUP1 RETURNDATACOPY RETURNDATASIZE PUSH1 0x0 REVERT JUMPDEST POP POP POP POP PUSH1 0x40 MLOAD RETURNDATASIZE PUSH1 0x1F NOT PUSH1 0x1F DUP3 ADD AND DUP3 ADD DUP1 PUSH1 0x40 MSTORE POP DUP2 ADD SWAP1 PUSH2 0xF58 SWAP2 SWAP1 PUSH2 0x1832 JUMP JUMPDEST PUSH2 0xF97 JUMPI PUSH1 0x40 MLOAD PUSH32 0x8C379A000000000000000000000000000000000000000000000000000000000 DUP2 MSTORE PUSH1 0x4 ADD PUSH2 0xF8E SWAP1 PUSH2 0x1940 JUMP JUMPDEST PUSH1 0x40 MLOAD DUP1 SWAP2 SUB SWAP1 REVERT JUMPDEST CALLER PUSH20 0xFFFFFFFFFFFFFFFFFFFFFFFFFFFFFFFFFFFFFFFF AND PUSH32 0x8D400643FA1CCABA7CE092175917C6D7087E296293A5D0DE32BCCB310F4774AB DUP4 DUP4 PUSH1 0x40 MLOAD PUSH2 0xFDF SWAP3 SWAP2 SWAP1 PUSH2 0x1C41 JUMP JUMPDEST PUSH1 0x40 MLOAD DUP1 SWAP2 SUB SWAP1 LOG2 POP POP JUMP JUMPDEST PUSH32 0x0 PUSH20 0xFFFFFFFFFFFFFFFFFFFFFFFFFFFFFFFFFFFFFFFF AND CALLER PUSH20 0xFFFFFFFFFFFFFFFFFFFFFFFFFFFFFFFFFFFFFFFF AND EQ PUSH2 0x1079 JUMPI PUSH1 0x40 MLOAD PUSH32 0x8C379A000000000000000000000000000000000000000000000000000000000 DUP2 MSTORE PUSH1 0x4 ADD PUSH2 0x1070 SWAP1 PUSH2 0x1A34 JUMP JUMPDEST PUSH1 0x40 MLOAD DUP1 SWAP2 SUB SWAP1 REVERT JUMPDEST DUP2 DUP2 SWAP1 POP DUP5 DUP5 SWAP1 POP EQ PUSH2 0x10C1 JUMPI PUSH1 0x40 MLOAD PUSH32 0x8C379A000000000000000000000000000000000000000000000000000000000 DUP2 MSTORE PUSH1 0x4 ADD PUSH2 0x10B8 SWAP1 PUSH2 0x1AA0 JUMP JUMPDEST PUSH1 0x40 MLOAD DUP1 SWAP2 SUB SWAP1 REVERT JUMPDEST PUSH1 0x0 JUMPDEST DUP5 DUP5 SWAP1 POP DUP2 LT ISZERO PUSH2 0x11EE JUMPI DUP3 DUP3 DUP3 DUP2 DUP2 LT PUSH2 0x10E2 JUMPI PUSH2 0x10E1 PUSH2 0x1AC0 JUMP JUMPDEST JUMPDEST SWAP1 POP PUSH1 0x20 MUL ADD CALLDATALOAD PUSH1 0x1 PUSH1 0x0 DUP8 DUP8 DUP6 DUP2 DUP2 LT PUSH2 0x1100 JUMPI PUSH2 0x10FF PUSH2 0x1AC0 JUMP JUMPDEST JUMPDEST SWAP1 POP PUSH1 0x20 MUL ADD PUSH1 0x20 DUP2 ADD SWAP1 PUSH2 0x1115 SWAP2 SWAP1 PUSH2 0x1307 JUMP JUMPDEST PUSH20 0xFFFFFFFFFFFFFFFFFFFFFFFFFFFFFFFFFFFFFFFF AND PUSH20 0xFFFFFFFFFFFFFFFFFFFFFFFFFFFFFFFFFFFFFFFF AND DUP2 MSTORE PUSH1 0x20 ADD SWAP1 DUP2 MSTORE PUSH1 0x20 ADD PUSH1 0x0 KECCAK256 DUP2 SWAP1 SSTORE POP DUP5 DUP5 DUP3 DUP2 DUP2 LT PUSH2 0x1166 JUMPI PUSH2 0x1165 PUSH2 0x1AC0 JUMP JUMPDEST JUMPDEST SWAP1 POP PUSH1 0x20 MUL ADD PUSH1 0x20 DUP2 ADD SWAP1 PUSH2 0x117B SWAP2 SWAP1 PUSH2 0x1307 JUMP JUMPDEST PUSH20 0xFFFFFFFFFFFFFFFFFFFFFFFFFFFFFFFFFFFFFFFF AND PUSH32 0x26762B82A4694940483DAEC4434420F79D887DF276154EF98B0FF8C4A36A6430 DUP5 DUP5 DUP5 DUP2 DUP2 LT PUSH2 0x11C5 JUMPI PUSH2 0x11C4 PUSH2 0x1AC0 JUMP JUMPDEST JUMPDEST SWAP1 POP PUSH1 0x20 MUL ADD CALLDATALOAD PUSH1 0x40 MLOAD PUSH2 0x11D9 SWAP2 SWAP1 PUSH2 0x1C7D JUMP JUMPDEST PUSH1 0x40 MLOAD DUP1 SWAP2 SUB SWAP1 LOG2 DUP1 DUP1 PUSH1 0x1 ADD SWAP2 POP POP PUSH2 0x10C4 JUMP JUMPDEST POP POP POP POP POP JUMP JUMPDEST PUSH1 0x0 PUSH1 0x20 MSTORE DUP1 PUSH1 0x0 MSTORE PUSH1 0x40 PUSH1 0x0 KECCAK256 PUSH1 0x0 SWAP2 POP SWAP1 POP SLOAD DUP2 JUMP JUMPDEST PUSH1 0x0 PUSH1 0x2 PUSH1 0x0 DUP4 PUSH20 0xFFFFFFFFFFFFFFFFFFFFFFFFFFFFFFFFFFFFFFFF AND PUSH20 0xFFFFFFFFFFFFFFFFFFFFFFFFFFFFFFFFFFFFFFFF AND DUP2 MSTORE PUSH1 0x20 ADD SWAP1 DUP2 MSTORE PUSH1 0x20 ADD PUSH1 0x0 KECCAK256 SLOAD PUSH1 0x0 DUP1 DUP5 PUSH20 0xFFFFFFFFFFFFFFFFFFFFFFFFFFFFFFFFFFFFFFFF AND PUSH20 0xFFFFFFFFFFFFFFFFFFFFFFFFFFFFFFFFFFFFFFFF AND DUP2 MSTORE PUSH1 0x20 ADD SWAP1 DUP2 MSTORE PUSH1 0x20 ADD PUSH1 0x0 KECCAK256 SLOAD PUSH2 0x1298 SWAP2 SWAP1 PUSH2 0x15D0 JUMP JUMPDEST SWAP1 POP SWAP2 SWAP1 POP JUMP JUMPDEST PUSH1 0x0 DUP1 REVERT JUMPDEST PUSH1 0x0 DUP1 REVERT JUMPDEST PUSH1 0x0 PUSH20 0xFFFFFFFFFFFFFFFFFFFFFFFFFFFFFFFFFFFFFFFF DUP3 AND SWAP1 POP SWAP2 SWAP1 POP JUMP JUMPDEST PUSH1 0x0 PUSH2 0x12D4 DUP3 PUSH2 0x12A9 JUMP JUMPDEST SWAP1 POP SWAP2 SWAP1 POP JUMP JUMPDEST PUSH2 0x12E4 DUP2 PUSH2 0x12C9 JUMP JUMPDEST DUP2 EQ PUSH2 0x12EF JUMPI PUSH1 0x0 DUP1 REVERT JUMPDEST POP JUMP JUMPDEST PUSH1 0x0 DUP2 CALLDATALOAD SWAP1 POP PUSH2 0x1301 DUP2 PUSH2 0x12DB JUMP JUMPDEST SWAP3 SWAP2 POP POP JUMP JUMPDEST PUSH1 0x0 PUSH1 0x20 DUP3 DUP5 SUB SLT ISZERO PUSH2 0x131D JUMPI PUSH2 0x131C PUSH2 0x129F JUMP JUMPDEST JUMPDEST PUSH1 0x0 PUSH2 0x132B DUP5 DUP3 DUP6 ADD PUSH2 0x12F2 JUMP JUMPDEST SWAP2 POP POP SWAP3 SWAP2 POP POP JUMP JUMPDEST PUSH1 0x0 DUP2 SWAP1 POP SWAP2 SWAP1 POP JUMP JUMPDEST PUSH2 0x1347 DUP2 PUSH2 0x1334 JUMP JUMPDEST DUP3 MSTORE POP POP JUMP JUMPDEST PUSH1 0x0 PUSH1 0x20 DUP3 ADD SWAP1 POP PUSH2 0x1362 PUSH1 0x0 DUP4 ADD DUP5 PUSH2 0x133E JUMP JUMPDEST SWAP3 SWAP2 POP POP JUMP JUMPDEST PUSH1 0x0 DUP2 SWAP1 POP SWAP2 SWAP1 POP JUMP JUMPDEST PUSH1 0x0 PUSH2 0x138D PUSH2 0x1388 PUSH2 0x1383 DUP5 PUSH2 0x12A9 JUMP JUMPDEST PUSH2 0x1368 JUMP JUMPDEST PUSH2 0x12A9 JUMP JUMPDEST SWAP1 POP SWAP2 SWAP1 POP JUMP JUMPDEST PUSH1 0x0 PUSH2 0x139F DUP3 PUSH2 0x1372 JUMP JUMPDEST SWAP1 POP SWAP2 SWAP1 POP JUMP JUMPDEST PUSH1 0x0 PUSH2 0x13B1 DUP3 PUSH2 0x1394 JUMP JUMPDEST SWAP1 POP SWAP2 SWAP1 POP JUMP JUMPDEST PUSH2 0x13C1 DUP2 PUSH2 0x13A6 JUMP JUMPDEST DUP3 MSTORE POP POP JUMP JUMPDEST PUSH1 0x0 PUSH1 0x20 DUP3 ADD SWAP1 POP PUSH2 0x13DC PUSH1 0x0 DUP4 ADD DUP5 PUSH2 0x13B8 JUMP JUMPDEST SWAP3 SWAP2 POP POP JUMP JUMPDEST PUSH2 0x13EB DUP2 PUSH2 0x1334 JUMP JUMPDEST DUP2 EQ PUSH2 0x13F6 JUMPI PUSH1 0x0 DUP1 REVERT JUMPDEST POP JUMP JUMPDEST PUSH1 0x0 DUP2 CALLDATALOAD SWAP1 POP PUSH2 0x1408 DUP2 PUSH2 0x13E2 JUMP JUMPDEST SWAP3 SWAP2 POP POP JUMP JUMPDEST PUSH1 0x0 PUSH1 0x20 DUP3 DUP5 SUB SLT ISZERO PUSH2 0x1424 JUMPI PUSH2 0x1423 PUSH2 0x129F JUMP JUMPDEST JUMPDEST PUSH1 0x0 PUSH2 0x1432 DUP5 DUP3 DUP6 ADD PUSH2 0x13F9 JUMP JUMPDEST SWAP2 POP POP SWAP3 SWAP2 POP POP JUMP JUMPDEST PUSH2 0x1444 DUP2 PUSH2 0x12C9 JUMP JUMPDEST DUP3 MSTORE POP POP JUMP JUMPDEST PUSH1 0x0 PUSH1 0x20 DUP3 ADD SWAP1 POP PUSH2 0x145F PUSH1 0x0 DUP4 ADD DUP5 PUSH2 0x143B JUMP JUMPDEST SWAP3 SWAP2 POP POP JUMP JUMPDEST PUSH1 0x0 DUP1 REVERT JUMPDEST PUSH1 0x0 DUP1 REVERT JUMPDEST PUSH1 0x0 DUP1 REVERT JUMPDEST PUSH1 0x0 DUP1 DUP4 PUSH1 0x1F DUP5 ADD SLT PUSH2 0x148A JUMPI PUSH2 0x1489 PUSH2 0x1465 JUMP JUMPDEST JUMPDEST DUP3 CALLDATALOAD SWAP1 POP PUSH8 0xFFFFFFFFFFFFFFFF DUP2 GT ISZERO PUSH2 0x14A7 JUMPI PUSH2 0x14A6 PUSH2 0x146A JUMP JUMPDEST JUMPDEST PUSH1 0x20 DUP4 ADD SWAP2 POP DUP4 PUSH1 0x20 DUP3 MUL DUP4 ADD GT ISZERO PUSH2 0x14C3 JUMPI PUSH2 0x14C2 PUSH2 0x146F JUMP JUMPDEST JUMPDEST SWAP3 POP SWAP3 SWAP1 POP JUMP JUMPDEST PUSH1 0x0 DUP1 DUP4 PUSH1 0x1F DUP5 ADD SLT PUSH2 0x14E0 JUMPI PUSH2 0x14DF PUSH2 0x1465 JUMP JUMPDEST JUMPDEST DUP3 CALLDATALOAD SWAP1 POP PUSH8 0xFFFFFFFFFFFFFFFF DUP2 GT ISZERO PUSH2 0x14FD JUMPI PUSH2 0x14FC PUSH2 0x146A JUMP JUMPDEST JUMPDEST PUSH1 0x20 DUP4 ADD SWAP2 POP DUP4 PUSH1 0x20 DUP3 MUL DUP4 ADD GT ISZERO PUSH2 0x1519 JUMPI PUSH2 0x1518 PUSH2 0x146F JUMP JUMPDEST JUMPDEST SWAP3 POP SWAP3 SWAP1 POP JUMP JUMPDEST PUSH1 0x0 DUP1 PUSH1 0x0 DUP1 PUSH1 0x40 DUP6 DUP8 SUB SLT ISZERO PUSH2 0x153A JUMPI PUSH2 0x1539 PUSH2 0x129F JUMP JUMPDEST JUMPDEST PUSH1 0x0 DUP6 ADD CALLDATALOAD PUSH8 0xFFFFFFFFFFFFFFFF DUP2 GT ISZERO PUSH2 0x1558 JUMPI PUSH2 0x1557 PUSH2 0x12A4 JUMP JUMPDEST JUMPDEST PUSH2 0x1564 DUP8 DUP3 DUP9 ADD PUSH2 0x1474 JUMP JUMPDEST SWAP5 POP SWAP5 POP POP PUSH1 0x20 DUP6 ADD CALLDATALOAD PUSH8 0xFFFFFFFFFFFFFFFF DUP2 GT ISZERO PUSH2 0x1587 JUMPI PUSH2 0x1586 PUSH2 0x12A4 JUMP JUMPDEST JUMPDEST PUSH2 0x1593 DUP8 DUP3 DUP9 ADD PUSH2 0x14CA JUMP JUMPDEST SWAP3 POP SWAP3 POP POP SWAP3 SWAP6 SWAP2 SWAP5 POP SWAP3 POP JUMP JUMPDEST PUSH32 0x4E487B7100000000000000000000000000000000000000000000000000000000 PUSH1 0x0 MSTORE PUSH1 0x11 PUSH1 0x4 MSTORE PUSH1 0x24 PUSH1 0x0 REVERT JUMPDEST PUSH1 0x0 PUSH2 0x15DB DUP3 PUSH2 0x1334 JUMP JUMPDEST SWAP2 POP PUSH2 0x15E6 DUP4 PUSH2 0x1334 JUMP JUMPDEST SWAP3 POP DUP3 DUP3 SUB SWAP1 POP DUP2 DUP2 GT ISZERO PUSH2 0x15FE JUMPI PUSH2 0x15FD PUSH2 0x15A1 JUMP JUMPDEST JUMPDEST SWAP3 SWAP2 POP POP JUMP JUMPDEST PUSH1 0x0 DUP3 DUP3 MSTORE PUSH1 0x20 DUP3 ADD SWAP1 POP SWAP3 SWAP2 POP POP JUMP JUMPDEST PUSH32 0x496E76616C696420616D6F756E74000000000000000000000000000000000000 PUSH1 0x0 DUP3 ADD MSTORE POP JUMP JUMPDEST PUSH1 0x0 PUSH2 0x164B PUSH1 0xE DUP4 PUSH2 0x1604 JUMP JUMPDEST SWAP2 POP PUSH2 0x1656 DUP3 PUSH2 0x1615 JUMP JUMPDEST PUSH1 0x20 DUP3 ADD SWAP1 POP SWAP2 SWAP1 POP JUMP JUMPDEST PUSH1 0x0 PUSH1 0x20 DUP3 ADD SWAP1 POP DUP2 DUP2 SUB PUSH1 0x0 DUP4 ADD MSTORE PUSH2 0x167A DUP2 PUSH2 0x163E JUMP JUMPDEST SWAP1 POP SWAP2 SWAP1 POP JUMP JUMPDEST PUSH1 0x0 PUSH2 0x168C DUP3 PUSH2 0x1334 JUMP JUMPDEST SWAP2 POP PUSH2 0x1697 DUP4 PUSH2 0x1334 JUMP JUMPDEST SWAP3 POP DUP3 DUP3 ADD SWAP1 POP DUP1 DUP3 GT ISZERO PUSH2 0x16AF JUMPI PUSH2 0x16AE PUSH2 0x15A1 JUMP JUMPDEST JUMPDEST SWAP3 SWAP2 POP POP JUMP JUMPDEST PUSH32 0x45786365656473206C696D697400000000000000000000000000000000000000 PUSH1 0x0 DUP3 ADD MSTORE POP JUMP JUMPDEST PUSH1 0x0 PUSH2 0x16EB PUSH1 0xD DUP4 PUSH2 0x1604 JUMP JUMPDEST SWAP2 POP PUSH2 0x16F6 DUP3 PUSH2 0x16B5 JUMP JUMPDEST PUSH1 0x20 DUP3 ADD SWAP1 POP SWAP2 SWAP1 POP JUMP JUMPDEST PUSH1 0x0 PUSH1 0x20 DUP3 ADD SWAP1 POP DUP2 DUP2 SUB PUSH1 0x0 DUP4 ADD MSTORE PUSH2 0x171A DUP2 PUSH2 0x16DE JUMP JUMPDEST SWAP1 POP SWAP2 SWAP1 POP JUMP JUMPDEST PUSH1 0x0 PUSH2 0x172C DUP3 PUSH2 0x1334 JUMP JUMPDEST SWAP2 POP PUSH2 0x1737 DUP4 PUSH2 0x1334 JUMP JUMPDEST SWAP3 POP DUP3 DUP3 MUL PUSH2 0x1745 DUP2 PUSH2 0x1334 JUMP JUMPDEST SWAP2 POP DUP3 DUP3 DIV DUP5 EQ DUP4 ISZERO OR PUSH2 0x175C JUMPI PUSH2 0x175B PUSH2 0x15A1 JUMP JUMPDEST JUMPDEST POP SWAP3 SWAP2 POP POP JUMP JUMPDEST PUSH32 0x4E487B7100000000000000000000000000000000000000000000000000000000 PUSH1 0x0 MSTORE PUSH1 0x12 PUSH1 0x4 MSTORE PUSH1 0x24 PUSH1 0x0 REVERT JUMPDEST PUSH1 0x0 PUSH2 0x179D DUP3 PUSH2 0x1334 JUMP JUMPDEST SWAP2 POP PUSH2 0x17A8 DUP4 PUSH2 0x1334 JUMP JUMPDEST SWAP3 POP DUP3 PUSH2 0x17B8 JUMPI PUSH2 0x17B7 PUSH2 0x1763 JUMP JUMPDEST JUMPDEST DUP3 DUP3 DIV SWAP1 POP SWAP3 SWAP2 POP POP JUMP JUMPDEST PUSH1 0x0 PUSH1 0x60 DUP3 ADD SWAP1 POP PUSH2 0x17D8 PUSH1 0x0 DUP4 ADD DUP7 PUSH2 0x143B JUMP JUMPDEST PUSH2 0x17E5 PUSH1 0x20 DUP4 ADD DUP6 PUSH2 0x143B JUMP JUMPDEST PUSH2 0x17F2 PUSH1 0x40 DUP4 ADD DUP5 PUSH2 0x133E JUMP JUMPDEST SWAP5 SWAP4 POP POP POP POP JUMP JUMPDEST PUSH1 0x0 DUP2 ISZERO ISZERO SWAP1 POP SWAP2 SWAP1 POP JUMP JUMPDEST PUSH2 0x180F DUP2 PUSH2 0x17FA JUMP JUMPDEST DUP2 EQ PUSH2 0x181A JUMPI PUSH1 0x0 DUP1 REVERT JUMPDEST POP JUMP JUMPDEST PUSH1 0x0 DUP2 MLOAD SWAP1 POP PUSH2 0x182C DUP2 PUSH2 0x1806 JUMP JUMPDEST SWAP3 SWAP2 POP POP JUMP JUMPDEST PUSH1 0x0 PUSH1 0x20 DUP3 DUP5 SUB SLT ISZERO PUSH2 0x1848 JUMPI PUSH2 0x1847 PUSH2 0x129F JUMP JUMPDEST JUMPDEST PUSH1 0x0 PUSH2 0x1856 DUP5 DUP3 DUP6 ADD PUSH2 0x181D JUMP JUMPDEST SWAP2 POP POP SWAP3 SWAP2 POP POP JUMP JUMPDEST PUSH32 0x515344207472616E73666572206661696C656400000000000000000000000000 PUSH1 0x0 DUP3 ADD MSTORE POP JUMP JUMPDEST PUSH1 0x0 PUSH2 0x1895 PUSH1 0x13 DUP4 PUSH2 0x1604 JUMP JUMPDEST SWAP2 POP PUSH2 0x18A0 DUP3 PUSH2 0x185F JUMP JUMPDEST PUSH1 0x20 DUP3 ADD SWAP1 POP SWAP2 SWAP1 POP JUMP JUMPDEST PUSH1 0x0 PUSH1 0x20 DUP3 ADD SWAP1 POP DUP2 DUP2 SUB PUSH1 0x0 DUP4 ADD MSTORE PUSH2 0x18C4 DUP2 PUSH2 0x1888 JUMP JUMPDEST SWAP1 POP SWAP2 SWAP1 POP JUMP JUMPDEST PUSH1 0x0 PUSH1 0x40 DUP3 ADD SWAP1 POP PUSH2 0x18E0 PUSH1 0x0 DUP4 ADD DUP6 PUSH2 0x143B JUMP JUMPDEST PUSH2 0x18ED PUSH1 0x20 DUP4 ADD DUP5 PUSH2 0x133E JUMP JUMPDEST SWAP4 SWAP3 POP POP POP JUMP JUMPDEST PUSH32 0x55534443207061796F7574206661696C65640000000000000000000000000000 PUSH1 0x0 DUP3 ADD MSTORE POP JUMP JUMPDEST PUSH1 0x0 PUSH2 0x192A PUSH1 0x12 DUP4 PUSH2 0x1604 JUMP JUMPDEST SWAP2 POP PUSH2 0x1935 DUP3 PUSH2 0x18F4 JUMP JUMPDEST PUSH1 0x20 DUP3 ADD SWAP1 POP SWAP2 SWAP1 POP JUMP JUMPDEST PUSH1 0x0 PUSH1 0x20 DUP3 ADD SWAP1 POP DUP2 DUP2 SUB PUSH1 0x0 DUP4 ADD MSTORE PUSH2 0x1959 DUP2 PUSH2 0x191D JUMP JUMPDEST SWAP1 POP SWAP2 SWAP1 POP JUMP JUMPDEST PUSH32 0x5153440000000000000000000000000000000000000000000000000000000000 PUSH1 0x0 DUP3 ADD MSTORE POP JUMP JUMPDEST PUSH1 0x0 PUSH2 0x1996 PUSH1 0x3 DUP4 PUSH2 0x1604 JUMP JUMPDEST SWAP2 POP PUSH2 0x19A1 DUP3 PUSH2 0x1960 JUMP JUMPDEST PUSH1 0x20 DUP3 ADD SWAP1 POP SWAP2 SWAP1 POP JUMP JUMPDEST PUSH1 0x0 PUSH1 0x60 DUP3 ADD SWAP1 POP DUP2 DUP2 SUB PUSH1 0x0 DUP4 ADD MSTORE PUSH2 0x19C5 DUP2 PUSH2 0x1989 JUMP JUMPDEST SWAP1 POP PUSH2 0x19D4 PUSH1 0x20 DUP4 ADD DUP6 PUSH2 0x133E JUMP JUMPDEST PUSH2 0x19E1 PUSH1 0x40 DUP4 ADD DUP5 PUSH2 0x133E JUMP JUMPDEST SWAP4 SWAP3 POP POP POP JUMP JUMPDEST PUSH32 0x4E6F74206F776E65720000000000000000000000000000000000000000000000 PUSH1 0x0 DUP3 ADD MSTORE POP JUMP JUMPDEST PUSH1 0x0 PUSH2 0x1A1E PUSH1 0x9 DUP4 PUSH2 0x1604 JUMP JUMPDEST SWAP2 POP PUSH2 0x1A29 DUP3 PUSH2 0x19E8 JUMP JUMPDEST PUSH1 0x20 DUP3 ADD SWAP1 POP SWAP2 SWAP1 POP JUMP JUMPDEST PUSH1 0x0 PUSH1 0x20 DUP3 ADD SWAP1 POP DUP2 DUP2 SUB PUSH1 0x0 DUP4 ADD MSTORE PUSH2 0x1A4D DUP2 PUSH2 0x1A11 JUMP JUMPDEST SWAP1 POP SWAP2 SWAP1 POP JUMP JUMPDEST PUSH32 0x4C656E677468206D69736D617463680000000000000000000000000000000000 PUSH1 0x0 DUP3 ADD MSTORE POP JUMP JUMPDEST PUSH1 0x0 PUSH2 0x1A8A PUSH1 0xF DUP4 PUSH2 0x1604 JUMP JUMPDEST SWAP2 POP PUSH2 0x1A95 DUP3 PUSH2 0x1A54 JUMP JUMPDEST PUSH1 0x20 DUP3 ADD SWAP1 POP SWAP2 SWAP1 POP JUMP JUMPDEST PUSH1 0x0 PUSH1 0x20 DUP3 ADD SWAP1 POP DUP2 DUP2 SUB PUSH1 0x0 DUP4 ADD MSTORE PUSH2 0x1AB9 DUP2 PUSH2 0x1A7D JUMP JUMPDEST SWAP1 POP SWAP2 SWAP1 POP JUMP JUMPDEST PUSH32 0x4E487B7100000000000000000000000000000000000000000000000000000000 PUSH1 0x0 MSTORE PUSH1 0x32 PUSH1 0x4 MSTORE PUSH1 0x24 PUSH1 0x0 REVERT JUMPDEST PUSH1 0x0 PUSH1 0x40 DUP3 ADD SWAP1 POP DUP2 DUP2 SUB PUSH1 0x0 DUP4 ADD MSTORE PUSH2 0x1B08 DUP2 PUSH2 0x1989 JUMP JUMPDEST SWAP1 POP PUSH2 0x1B17 PUSH1 0x20 DUP4 ADD DUP5 PUSH2 0x133E JUMP JUMPDEST SWAP3 SWAP2 POP POP JUMP JUMPDEST PUSH32 0x5769746864726177206661696C65640000000000000000000000000000000000 PUSH1 0x0 DUP3 ADD MSTORE POP JUMP JUMPDEST PUSH1 0x0 PUSH2 0x1B53 PUSH1 0xF DUP4 PUSH2 0x1604 JUMP JUMPDEST SWAP2 POP PUSH2 0x1B5E DUP3 PUSH2 0x1B1D JUMP JUMPDEST PUSH1 0x20 DUP3 ADD SWAP1 POP SWAP2 SWAP1 POP JUMP JUMPDEST PUSH1 0x0 PUSH1 0x20 DUP3 ADD SWAP1 POP DUP2 DUP2 SUB PUSH1 0x0 DUP4 ADD MSTORE PUSH2 0x1B82 DUP2 PUSH2 0x1B46 JUMP JUMPDEST SWAP1 POP SWAP2 SWAP1 POP JUMP JUMPDEST PUSH32 0x515254207472616E73666572206661696C656400000000000000000000000000 PUSH1 0x0 DUP3 ADD MSTORE POP JUMP JUMPDEST PUSH1 0x0 PUSH2 0x1BBF PUSH1 0x13 DUP4 PUSH2 0x1604 JUMP JUMPDEST SWAP2 POP PUSH2 0x1BCA DUP3 PUSH2 0x1B89 JUMP JUMPDEST PUSH1 0x20 DUP3 ADD SWAP1 POP SWAP2 SWAP1 POP JUMP JUMPDEST PUSH1 0x0 PUSH1 0x20 DUP3 ADD SWAP1 POP DUP2 DUP2 SUB PUSH1 0x0 DUP4 ADD MSTORE PUSH2 0x1BEE DUP2 PUSH2 0x1BB2 JUMP JUMPDEST SWAP1 POP SWAP2 SWAP1 POP JUMP JUMPDEST PUSH32 0x5152540000000000000000000000000000000000000000000000000000000000 PUSH1 0x0 DUP3 ADD MSTORE POP JUMP JUMPDEST PUSH1 0x0 PUSH2 0x1C2B PUSH1 0x3 DUP4 PUSH2 0x1604 JUMP JUMPDEST SWAP2 POP PUSH2 0x1C36 DUP3 PUSH2 0x1BF5 JUMP JUMPDEST PUSH1 0x20 DUP3 ADD SWAP1 POP SWAP2 SWAP1 POP JUMP JUMPDEST PUSH1 0x0 PUSH1 0x60 DUP3 ADD SWAP1 POP DUP2 DUP2 SUB PUSH1 0x0 DUP4 ADD MSTORE PUSH2 0x1C5A DUP2 PUSH2 0x1C1E JUMP JUMPDEST SWAP1 POP PUSH2 0x1C69 PUSH1 0x20 DUP4 ADD DUP6 PUSH2 0x133E JUMP JUMPDEST PUSH2 0x1C76 PUSH1 0x40 DUP4 ADD DUP5 PUSH2 0x133E JUMP JUMPDEST SWAP4 SWAP3 POP POP POP JUMP JUMPDEST PUSH1 0x0 PUSH1 0x40 DUP3 ADD SWAP1 POP DUP2 DUP2 SUB PUSH1 0x0 DUP4 ADD MSTORE PUSH2 0x1C96 DUP2 PUSH2 0x1C1E JUMP JUMPDEST SWAP1 POP PUSH2 0x1CA5 PUSH1 0x20 DUP4 ADD DUP5 PUSH2 0x133E JUMP JUMPDEST SWAP3 SWAP2 POP POP JUMP INVALID LOG2 PUSH5 0x6970667358 0x22 SLT KECCAK256 LOG0 MLOAD 0xEB PUSH7 0x74B2D6B99BED39 PUSH9 0x46AA0D0B4F1E884B95 0x2F PUSH10 0x8B09588E0AA057549E64 PUSH20 0x6F6C634300081C00330000000000000000000000 "
        },
        "methodIdentifiers": {
          "QRT()": "b1e9a3a8",
          "QRT_RATE()": "4714a994",
          "QSD()": "407bd9c0",
          "QSD_RATE()": "5988a41a",
          "USDC()": "89a30271",
          "allowedQRT(address)": "3e0f1dab",
          "allowedQSD(address)": "f363cd5f",
          "emergencyWithdrawUSDC(uint256)": "c3520788",
          "owner()": "8da5cb5b",
          "remainingQRT(address)": "2ca4690f",
          "remainingQSD(address)": "f4db26ec",
          "setSnapshotQRT(address[],uint256[])": "efd03498",
          "setSnapshotQSD(address[],uint256[])": "af572287",
          "swapQRT(uint256)": "e9b9ca6c",
          "swapQSD(uint256)": "4d1f8202",
          "swappedQRT(address)": "76ee3793",
          "swappedQSD(address)": "641400c5"
        }
      }
    }
  }
}