{
  "_format": "hh-sol-artifact-1",
  "contractName": "DepositLst",
  "sourceName": "contracts/DepositLst.sol",
  "abi": [
    {
      "inputs": [
        {
          "internalType": "address",
          "name": "_qsd",
          "type": "address"
        },
        {
          "internalType": "address",
          "name": "_qrt",
          "type": "address"
        }
      ],
      "stateMutability": "nonpayable",
      "type": "constructor"
    },
    {
      "inputs": [],
      "name": "EnforcedPause",
      "type": "error"
    },
    {
      "inputs": [],
      "name": "ExceedsAllowance",
      "type": "error"
    },
    {
      "inputs": [],
      "name": "ExpectedPause",
      "type": "error"
    },
    {
      "inputs": [],
      "name": "InvalidAmount",
      "type": "error"
    },
    {
      "inputs": [],
      "name": "LengthMismatch",
      "type": "error"
    },
    {
      "inputs": [
        {
          "internalType": "address",
          "name": "owner",
          "type": "address"
        }
      ],
      "name": "OwnableInvalidOwner",
      "type": "error"
    },
    {
      "inputs": [
        {
          "internalType": "address",
          "name": "account",
          "type": "address"
        }
      ],
      "name": "OwnableUnauthorizedAccount",
      "type": "error"
    },
    {
      "inputs": [
        {
          "internalType": "address",
          "name": "token",
          "type": "address"
        }
      ],
      "name": "SafeERC20FailedOperation",
      "type": "error"
    },
    {
      "anonymous": false,
      "inputs": [
        {
          "indexed": true,
          "internalType": "address",
          "name": "user",
          "type": "address"
        },
        {
          "indexed": false,
          "internalType": "string",
          "name": "token",
          "type": "string"
        },
        {
          "indexed": false,
          "internalType": "uint256",
          "name": "amount",
          "type": "uint256"
        },
        {
          "indexed": false,
          "internalType": "uint256",
          "name": "timestamp",
          "type": "uint256"
        }
      ],
      "name": "Deposited",
      "type": "event"
    },
    {
      "anonymous": false,
      "inputs": [
        {
          "indexed": true,
          "internalType": "address",
          "name": "previousOwner",
          "type": "address"
        },
        {
          "indexed": true,
          "internalType": "address",
          "name": "newOwner",
          "type": "address"
        }
      ],
      "name": "OwnershipTransferred",
      "type": "event"
    },
    {
      "anonymous": false,
      "inputs": [
        {
          "indexed": false,
          "internalType": "address",
          "name": "account",
          "type": "address"
        }
      ],
      "name": "Paused",
      "type": "event"
    },
    {
      "anonymous": false,
      "inputs": [
        {
          "indexed": true,
          "internalType": "address",
          "name": "user",
          "type": "address"
        },
        {
          "indexed": false,
          "internalType": "string",
          "name": "token",
          "type": "string"
        },
        {
          "indexed": false,
          "internalType": "uint256",
          "name": "allowedAmount",
          "type": "uint256"
        },
        {
          "indexed": false,
          "internalType": "uint256",
          "name": "timestamp",
          "type": "uint256"
        }
      ],
      "name": "SnapshotSet",
      "type": "event"
    },
    {
      "anonymous": false,
      "inputs": [
        {
          "indexed": false,
          "internalType": "address",
          "name": "account",
          "type": "address"
        }
      ],
      "name": "Unpaused",
      "type": "event"
    },
    {
      "inputs": [],
      "name": "QRT",
      "outputs": [
        {
          "internalType": "contract IERC20",
          "name": "",
          "type": "address"
        }
      ],
      "stateMutability": "view",
      "type": "function"
    },
    {
      "inputs": [],
      "name": "QSD",
      "outputs": [
        {
          "internalType": "contract IERC20",
          "name": "",
          "type": "address"
        }
      ],
      "stateMutability": "view",
      "type": "function"
    },
    {
      "inputs": [
        {
          "internalType": "address",
          "name": "",
          "type": "address"
        }
      ],
      "name": "allowedQRT",
      "outputs": [
        {
          "internalType": "uint256",
          "name": "",
          "type": "uint256"
        }
      ],
      "stateMutability": "view",
      "type": "function"
    },
    {
      "inputs": [
        {
          "internalType": "address",
          "name": "",
          "type": "address"
        }
      ],
      "name": "allowedQSD",
      "outputs": [
        {
          "internalType": "uint256",
          "name": "",
          "type": "uint256"
        }
      ],
      "stateMutability": "view",
      "type": "function"
    },
    {
      "inputs": [
        {
          "internalType": "uint256",
          "name": "amount",
          "type": "uint256"
        }
      ],
      "name": "depositQRT",
      "outputs": [],
      "stateMutability": "nonpayable",
      "type": "function"
    },
    {
      "inputs": [
        {
          "internalType": "uint256",
          "name": "amount",
          "type": "uint256"
        }
      ],
      "name": "depositQSD",
      "outputs": [],
      "stateMutability": "nonpayable",
      "type": "function"
    },
    {
      "inputs": [
        {
          "internalType": "address",
          "name": "",
          "type": "address"
        }
      ],
      "name": "depositedQRT",
      "outputs": [
        {
          "internalType": "uint256",
          "name": "",
          "type": "uint256"
        }
      ],
      "stateMutability": "view",
      "type": "function"
    },
    {
      "inputs": [
        {
          "internalType": "address",
          "name": "",
          "type": "address"
        }
      ],
      "name": "depositedQSD",
      "outputs": [
        {
          "internalType": "uint256",
          "name": "",
          "type": "uint256"
        }
      ],
      "stateMutability": "view",
      "type": "function"
    },
    {
      "inputs": [
        {
          "internalType": "uint256",
          "name": "amount",
          "type": "uint256"
        }
      ],
      "name": "emergencyWithdrawLst",
      "outputs": [],
      "stateMutability": "nonpayable",
      "type": "function"
    },
    {
      "inputs": [
        {
          "internalType": "address",
          "name": "user",
          "type": "address"
        }
      ],
      "name": "getRemainingQRT",
      "outputs": [
        {
          "internalType": "uint256",
          "name": "",
          "type": "uint256"
        }
      ],
      "stateMutability": "view",
      "type": "function"
    },
    {
      "inputs": [
        {
          "internalType": "address",
          "name": "user",
          "type": "address"
        }
      ],
      "name": "getRemainingQSD",
      "outputs": [
        {
          "internalType": "uint256",
          "name": "",
          "type": "uint256"
        }
      ],
      "stateMutability": "view",
      "type": "function"
    },
    {
      "inputs": [],
      "name": "owner",
      "outputs": [
        {
          "internalType": "address",
          "name": "",
          "type": "address"
        }
      ],
      "stateMutability": "view",
      "type": "function"
    },
    {
      "inputs": [],
      "name": "pause",
      "outputs": [],
      "stateMutability": "nonpayable",
      "type": "function"
    },
    {
      "inputs": [],
      "name": "paused",
      "outputs": [
        {
          "internalType": "bool",
          "name": "",
          "type": "bool"
        }
      ],
      "stateMutability": "view",
      "type": "function"
    },
    {
      "inputs": [],
      "name": "renounceOwnership",
      "outputs": [],
      "stateMutability": "nonpayable",
      "type": "function"
    },
    {
      "inputs": [
        {
          "internalType": "address[]",
          "name": "users",
          "type": "address[]"
        },
        {
          "internalType": "uint256[]",
          "name": "amounts",
          "type": "uint256[]"
        }
      ],
      "name": "setSnapshotQRT",
      "outputs": [],
      "stateMutability": "nonpayable",
      "type": "function"
    },
    {
      "inputs": [
        {
          "internalType": "address[]",
          "name": "users",
          "type": "address[]"
        },
        {
          "internalType": "uint256[]",
          "name": "amounts",
          "type": "uint256[]"
        }
      ],
      "name": "setSnapshotQSD",
      "outputs": [],
      "stateMutability": "nonpayable",
      "type": "function"
    },
    {
      "inputs": [
        {
          "internalType": "address",
          "name": "newOwner",
          "type": "address"
        }
      ],
      "name": "transferOwnership",
      "outputs": [],
      "stateMutability": "nonpayable",
      "type": "function"
    },
    {
      "inputs": [],
      "name": "unpause",
      "outputs": [],
      "stateMutability": "nonpayable",
      "type": "function"
    }
  ],
  "bytecode": "0x60c060405234801561001057600080fd5b50604051611ad6380380611ad68339818101604052810190610032919061024c565b33600073ffffffffffffffffffffffffffffffffffffffff168173ffffffffffffffffffffffffffffffffffffffff16036100a55760006040517f1e4fbdf700000000000000000000000000000000000000000000000000000000815260040161009c919061029b565b60405180910390fd5b6100b48161012460201b60201c565b508173ffffffffffffffffffffffffffffffffffffffff1660808173ffffffffffffffffffffffffffffffffffffffff16815250508073ffffffffffffffffffffffffffffffffffffffff1660a08173ffffffffffffffffffffffffffffffffffffffff168152505050506102b6565b60008060019054906101000a900473ffffffffffffffffffffffffffffffffffffffff16905081600060016101000a81548173ffffffffffffffffffffffffffffffffffffffff021916908373ffffffffffffffffffffffffffffffffffffffff1602179055508173ffffffffffffffffffffffffffffffffffffffff168173ffffffffffffffffffffffffffffffffffffffff167f8be0079c531659141344cd1fd0a4f28419497f9722a3daafe3b4186f6b6457e060405160405180910390a35050565b600080fd5b600073ffffffffffffffffffffffffffffffffffffffff82169050919050565b6000610219826101ee565b9050919050565b6102298161020e565b811461023457600080fd5b50565b60008151905061024681610220565b92915050565b60008060408385031215610263576102626101e9565b5b600061027185828601610237565b925050602061028285828601610237565b9150509250929050565b6102958161020e565b82525050565b60006020820190506102b0600083018461028c565b92915050565b60805160a0516117df6102f7600039600081816105600152818161073101526109b60152600081816104d60152818161050e0152610ae501526117df6000f3fe608060405234801561001057600080fd5b50600436106101215760003560e01c806389475ee4116100ad578063b1e9a3a811610071578063b1e9a3a8146102e2578063d004e67a14610300578063efd034981461031c578063f2fde38b14610338578063f363cd5f1461035457610121565b806389475ee41461022c5780638da5cb5b1461025c5780639ec519251461027a578063a76c7b1814610296578063af572287146102c657610121565b8063407bd9c0116100f4578063407bd9c0146101c057806355161dc1146101de5780635c975abb146101fa578063715018a6146102185780638456cb591461022257610121565b80632f7dfe21146101265780633e0f1dab146101565780633f3077ef146101865780633f4ba83a146101b6575b600080fd5b610140600480360381019061013b9190611292565b610384565b60405161014d91906112d8565b60405180910390f35b610170600480360381019061016b9190611292565b610417565b60405161017d91906112d8565b60405180910390f35b6101a0600480360381019061019b9190611292565b61042f565b6040516101ad91906112d8565b60405180910390f35b6101be6104c2565b005b6101c86104d4565b6040516101d59190611352565b60405180910390f35b6101f860048036038101906101f39190611399565b6104f8565b005b6102026105a7565b60405161020f91906113e1565b60405180910390f35b6102206105bd565b005b61022a6105d1565b005b61024660048036038101906102419190611292565b6105e3565b60405161025391906112d8565b60405180910390f35b6102646105fb565b604051610271919061140b565b60405180910390f35b610294600480360381019061028f9190611399565b610624565b005b6102b060048036038101906102ab9190611292565b61081f565b6040516102bd91906112d8565b60405180910390f35b6102e060048036038101906102db91906114e1565b610837565b005b6102ea6109b4565b6040516102f79190611352565b60405180910390f35b61031a60048036038101906103159190611399565b6109d8565b005b610336600480360381019061033191906114e1565b610bd3565b005b610352600480360381019061034d9190611292565b610d50565b005b61036e60048036038101906103699190611292565b610dd6565b60405161037b91906112d8565b60405180910390f35b6000600360008373ffffffffffffffffffffffffffffffffffffffff1673ffffffffffffffffffffffffffffffffffffffff16815260200190815260200160002054600160008473ffffffffffffffffffffffffffffffffffffffff1673ffffffffffffffffffffffffffffffffffffffff168152602001908152602001600020546104109190611591565b9050919050565b60026020528060005260406000206000915090505481565b6000600460008373ffffffffffffffffffffffffffffffffffffffff1673ffffffffffffffffffffffffffffffffffffffff16815260200190815260200160002054600260008473ffffffffffffffffffffffffffffffffffffffff1673ffffffffffffffffffffffffffffffffffffffff168152602001908152602001600020546104bb9190611591565b9050919050565b6104ca610dee565b6104d2610e75565b565b7f000000000000000000000000000000000000000000000000000000000000000081565b610500610dee565b61055261050b6105fb565b827f000000000000000000000000000000000000000000000000000000000000000073ffffffffffffffffffffffffffffffffffffffff16610ed79092919063ffffffff16565b6105a461055d6105fb565b827f000000000000000000000000000000000000000000000000000000000000000073ffffffffffffffffffffffffffffffffffffffff16610ed79092919063ffffffff16565b50565b60008060009054906101000a900460ff16905090565b6105c5610dee565b6105cf6000610f56565b565b6105d9610dee565b6105e161101b565b565b60036020528060005260406000206000915090505481565b60008060019054906101000a900473ffffffffffffffffffffffffffffffffffffffff16905090565b61062c61107d565b60008103610666576040517f2c5211c600000000000000000000000000000000000000000000000000000000815260040160405180910390fd5b600260003373ffffffffffffffffffffffffffffffffffffffff1673ffffffffffffffffffffffffffffffffffffffff1681526020019081526020016000205481600460003373ffffffffffffffffffffffffffffffffffffffff1673ffffffffffffffffffffffffffffffffffffffff168152602001908152602001600020546106f191906115c5565b1115610729576040517f9d835a0a00000000000000000000000000000000000000000000000000000000815260040160405180910390fd5b6107763330837f000000000000000000000000000000000000000000000000000000000000000073ffffffffffffffffffffffffffffffffffffffff166110be909392919063ffffffff16565b80600460003373ffffffffffffffffffffffffffffffffffffffff1673ffffffffffffffffffffffffffffffffffffffff16815260200190815260200160002060008282546107c591906115c5565b925050819055503373ffffffffffffffffffffffffffffffffffffffff167fd142439c278e25dad9a50766f153d0e3d2d7bf2bd16fc2781c4bd494b2b15a9d8242604051610814929190611656565b60405180910390a250565b60046020528060005260406000206000915090505481565b61083f610dee565b81819050848490501461087e576040517fff633a3800000000000000000000000000000000000000000000000000000000815260040160405180910390fd5b60005b848490508110156109ad5782828281811061089f5761089e611692565b5b90506020020135600160008787858181106108bd576108bc611692565b5b90506020020160208101906108d29190611292565b73ffffffffffffffffffffffffffffffffffffffff1673ffffffffffffffffffffffffffffffffffffffff1681526020019081526020016000208190555084848281811061092357610922611692565b5b90506020020160208101906109389190611292565b73ffffffffffffffffffffffffffffffffffffffff167f7b8d5c62ee887e5666f721837ced9ad3a87b318a0cfe015a3269a8e0867ec9e384848481811061098257610981611692565b5b905060200201354260405161099892919061170d565b60405180910390a28080600101915050610881565b5050505050565b7f000000000000000000000000000000000000000000000000000000000000000081565b6109e061107d565b60008103610a1a576040517f2c5211c600000000000000000000000000000000000000000000000000000000815260040160405180910390fd5b600160003373ffffffffffffffffffffffffffffffffffffffff1673ffffffffffffffffffffffffffffffffffffffff1681526020019081526020016000205481600360003373ffffffffffffffffffffffffffffffffffffffff1673ffffffffffffffffffffffffffffffffffffffff16815260200190815260200160002054610aa591906115c5565b1115610add576040517f9d835a0a00000000000000000000000000000000000000000000000000000000815260040160405180910390fd5b610b2a3330837f000000000000000000000000000000000000000000000000000000000000000073ffffffffffffffffffffffffffffffffffffffff166110be909392919063ffffffff16565b80600360003373ffffffffffffffffffffffffffffffffffffffff1673ffffffffffffffffffffffffffffffffffffffff1681526020019081526020016000206000828254610b7991906115c5565b925050819055503373ffffffffffffffffffffffffffffffffffffffff167fd142439c278e25dad9a50766f153d0e3d2d7bf2bd16fc2781c4bd494b2b15a9d8242604051610bc892919061170d565b60405180910390a250565b610bdb610dee565b818190508484905014610c1a576040517fff633a3800000000000000000000000000000000000000000000000000000000815260040160405180910390fd5b60005b84849050811015610d4957828282818110610c3b57610c3a611692565b5b9050602002013560026000878785818110610c5957610c58611692565b5b9050602002016020810190610c6e9190611292565b73ffffffffffffffffffffffffffffffffffffffff1673ffffffffffffffffffffffffffffffffffffffff16815260200190815260200160002081905550848482818110610cbf57610cbe611692565b5b9050602002016020810190610cd49190611292565b73ffffffffffffffffffffffffffffffffffffffff167f7b8d5c62ee887e5666f721837ced9ad3a87b318a0cfe015a3269a8e0867ec9e3848484818110610d1e57610d1d611692565b5b9050602002013542604051610d34929190611656565b60405180910390a28080600101915050610c1d565b5050505050565b610d58610dee565b600073ffffffffffffffffffffffffffffffffffffffff168173ffffffffffffffffffffffffffffffffffffffff1603610dca5760006040517f1e4fbdf7000000000000000000000000000000000000000000000000000000008152600401610dc1919061140b565b60405180910390fd5b610dd381610f56565b50565b60016020528060005260406000206000915090505481565b610df6611140565b73ffffffffffffffffffffffffffffffffffffffff16610e146105fb565b73ffffffffffffffffffffffffffffffffffffffff1614610e7357610e37611140565b6040517f118cdaa7000000000000000000000000000000000000000000000000000000008152600401610e6a919061140b565b60405180910390fd5b565b610e7d611148565b60008060006101000a81548160ff0219169083151502179055507f5db9ee0a495bf2e6ff9c91a7834c1ba4fdd244a5e8aa4e537bd38aeae4b073aa610ec0611140565b604051610ecd919061140b565b60405180910390a1565b610f51838473ffffffffffffffffffffffffffffffffffffffff1663a9059cbb8585604051602401610f0a929190611749565b604051602081830303815290604052915060e01b6020820180517bffffffffffffffffffffffffffffffffffffffffffffffffffffffff8381831617835250505050611188565b505050565b60008060019054906101000a900473ffffffffffffffffffffffffffffffffffffffff16905081600060016101000a81548173ffffffffffffffffffffffffffffffffffffffff021916908373ffffffffffffffffffffffffffffffffffffffff1602179055508173ffffffffffffffffffffffffffffffffffffffff168173ffffffffffffffffffffffffffffffffffffffff167f8be0079c531659141344cd1fd0a4f28419497f9722a3daafe3b4186f6b6457e060405160405180910390a35050565b61102361107d565b60016000806101000a81548160ff0219169083151502179055507f62e78cea01bee320cd4e420270b5ea74000d11b0c9f74754ebdbfc544b05a258611066611140565b604051611073919061140b565b60405180910390a1565b6110856105a7565b156110bc576040517fd93c066500000000000000000000000000000000000000000000000000000000815260040160405180910390fd5b565b61113a848573ffffffffffffffffffffffffffffffffffffffff166323b872dd8686866040516024016110f393929190611772565b604051602081830303815290604052915060e01b6020820180517bffffffffffffffffffffffffffffffffffffffffffffffffffffffff8381831617835250505050611188565b50505050565b600033905090565b6111506105a7565b611186576040517f8dfc202b00000000000000000000000000000000000000000000000000000000815260040160405180910390fd5b565b600080602060008451602086016000885af1806111ab576040513d6000823e3d81fd5b3d9250600051915050600082146111c65760018114156111e2565b60008473ffffffffffffffffffffffffffffffffffffffff163b145b1561122457836040517f5274afe700000000000000000000000000000000000000000000000000000000815260040161121b919061140b565b60405180910390fd5b50505050565b600080fd5b600080fd5b600073ffffffffffffffffffffffffffffffffffffffff82169050919050565b600061125f82611234565b9050919050565b61126f81611254565b811461127a57600080fd5b50565b60008135905061128c81611266565b92915050565b6000602082840312156112a8576112a761122a565b5b60006112b68482850161127d565b91505092915050565b6000819050919050565b6112d2816112bf565b82525050565b60006020820190506112ed60008301846112c9565b92915050565b6000819050919050565b600061131861131361130e84611234565b6112f3565b611234565b9050919050565b600061132a826112fd565b9050919050565b600061133c8261131f565b9050919050565b61134c81611331565b82525050565b60006020820190506113676000830184611343565b92915050565b611376816112bf565b811461138157600080fd5b50565b6000813590506113938161136d565b92915050565b6000602082840312156113af576113ae61122a565b5b60006113bd84828501611384565b91505092915050565b60008115159050919050565b6113db816113c6565b82525050565b60006020820190506113f660008301846113d2565b92915050565b61140581611254565b82525050565b600060208201905061142060008301846113fc565b92915050565b600080fd5b600080fd5b600080fd5b60008083601f84011261144b5761144a611426565b5b8235905067ffffffffffffffff8111156114685761146761142b565b5b60208301915083602082028301111561148457611483611430565b5b9250929050565b60008083601f8401126114a1576114a0611426565b5b8235905067ffffffffffffffff8111156114be576114bd61142b565b5b6020830191508360208202830111156114da576114d9611430565b5b9250929050565b600080600080604085870312156114fb576114fa61122a565b5b600085013567ffffffffffffffff8111156115195761151861122f565b5b61152587828801611435565b9450945050602085013567ffffffffffffffff8111156115485761154761122f565b5b6115548782880161148b565b925092505092959194509250565b7f4e487b7100000000000000000000000000000000000000000000000000000000600052601160045260246000fd5b600061159c826112bf565b91506115a7836112bf565b92508282039050818111156115bf576115be611562565b5b92915050565b60006115d0826112bf565b91506115db836112bf565b92508282019050808211156115f3576115f2611562565b5b92915050565b600082825260208201905092915050565b7f5152540000000000000000000000000000000000000000000000000000000000600082015250565b60006116406003836115f9565b915061164b8261160a565b602082019050919050565b6000606082019050818103600083015261166f81611633565b905061167e60208301856112c9565b61168b60408301846112c9565b9392505050565b7f4e487b7100000000000000000000000000000000000000000000000000000000600052603260045260246000fd5b7f5153440000000000000000000000000000000000000000000000000000000000600082015250565b60006116f76003836115f9565b9150611702826116c1565b602082019050919050565b60006060820190508181036000830152611726816116ea565b905061173560208301856112c9565b61174260408301846112c9565b9392505050565b600060408201905061175e60008301856113fc565b61176b60208301846112c9565b9392505050565b600060608201905061178760008301866113fc565b61179460208301856113fc565b6117a160408301846112c9565b94935050505056fea2646970667358221220ddfc263ff43104977eb5cb575cf2c9075f9ee45be32d9d48c532802e4693464864736f6c634300081c0033",
  "linkReferences": {},
  "deployedLinkReferences": {}
}