{
  "_format": "hh-sol-artifact-1",
  "contractName": "SwapLst",
  "sourceName": "contracts/SwapLst.sol",
  "abi": [
    {
      "inputs": [
        {
          "internalType": "address",
          "name": "_qsd",
          "type": "address"
        },
        {
          "internalType": "address",
          "name": "_qrt",
          "type": "address"
        },
        {
          "internalType": "address",
          "name": "_usdc",
          "type": "address"
        }
      ],
      "stateMutability": "nonpayable",
      "type": "constructor"
    },
    {
      "anonymous": false,
      "inputs": [
        {
          "indexed": true,
          "internalType": "address",
          "name": "user",
          "type": "address"
        },
        {
          "indexed": false,
          "internalType": "string",
          "name": "token",
          "type": "string"
        },
        {
          "indexed": false,
          "internalType": "uint256",
          "name": "allowedAmount",
          "type": "uint256"
        }
      ],
      "name": "SnapshotSet",
      "type": "event"
    },
    {
      "anonymous": false,
      "inputs": [
        {
          "indexed": true,
          "internalType": "address",
          "name": "user",
          "type": "address"
        },
        {
          "indexed": false,
          "internalType": "string",
          "name": "token",
          "type": "string"
        },
        {
          "indexed": false,
          "internalType": "uint256",
          "name": "amountIn",
          "type": "uint256"
        },
        {
          "indexed": false,
          "internalType": "uint256",
          "name": "amountOut",
          "type": "uint256"
        }
      ],
      "name": "Swapped",
      "type": "event"
    },
    {
      "inputs": [],
      "name": "QRT",
      "outputs": [
        {
          "internalType": "contract IERC20",
          "name": "",
          "type": "address"
        }
      ],
      "stateMutability": "view",
      "type": "function"
    },
    {
      "inputs": [],
      "name": "QRT_RATE",
      "outputs": [
        {
          "internalType": "uint256",
          "name": "",
          "type": "uint256"
        }
      ],
      "stateMutability": "view",
      "type": "function"
    },
    {
      "inputs": [],
      "name": "QSD",
      "outputs": [
        {
          "internalType": "contract IERC20",
          "name": "",
          "type": "address"
        }
      ],
      "stateMutability": "view",
      "type": "function"
    },
    {
      "inputs": [],
      "name": "QSD_RATE",
      "outputs": [
        {
          "internalType": "uint256",
          "name": "",
          "type": "uint256"
        }
      ],
      "stateMutability": "view",
      "type": "function"
    },
    {
      "inputs": [],
      "name": "USDC",
      "outputs": [
        {
          "internalType": "contract IERC20",
          "name": "",
          "type": "address"
        }
      ],
      "stateMutability": "view",
      "type": "function"
    },
    {
      "inputs": [
        {
          "internalType": "address",
          "name": "",
          "type": "address"
        }
      ],
      "name": "allowedQRT",
      "outputs": [
        {
          "internalType": "uint256",
          "name": "",
          "type": "uint256"
        }
      ],
      "stateMutability": "view",
      "type": "function"
    },
    {
      "inputs": [
        {
          "internalType": "address",
          "name": "",
          "type": "address"
        }
      ],
      "name": "allowedQSD",
      "outputs": [
        {
          "internalType": "uint256",
          "name": "",
          "type": "uint256"
        }
      ],
      "stateMutability": "view",
      "type": "function"
    },
    {
      "inputs": [
        {
          "internalType": "uint256",
          "name": "amount",
          "type": "uint256"
        }
      ],
      "name": "emergencyWithdrawUSDC",
      "outputs": [],
      "stateMutability": "nonpayable",
      "type": "function"
    },
    {
      "inputs": [],
      "name": "owner",
      "outputs": [
        {
          "internalType": "address",
          "name": "",
          "type": "address"
        }
      ],
      "stateMutability": "view",
      "type": "function"
    },
    {
      "inputs": [
        {
          "internalType": "address",
          "name": "user",
          "type": "address"
        }
      ],
      "name": "remainingQRT",
      "outputs": [
        {
          "internalType": "uint256",
          "name": "",
          "type": "uint256"
        }
      ],
      "stateMutability": "view",
      "type": "function"
    },
    {
      "inputs": [
        {
          "internalType": "address",
          "name": "user",
          "type": "address"
        }
      ],
      "name": "remainingQSD",
      "outputs": [
        {
          "internalType": "uint256",
          "name": "",
          "type": "uint256"
        }
      ],
      "stateMutability": "view",
      "type": "function"
    },
    {
      "inputs": [
        {
          "internalType": "address[]",
          "name": "users",
          "type": "address[]"
        },
        {
          "internalType": "uint256[]",
          "name": "amounts",
          "type": "uint256[]"
        }
      ],
      "name": "setSnapshotQRT",
      "outputs": [],
      "stateMutability": "nonpayable",
      "type": "function"
    },
    {
      "inputs": [
        {
          "internalType": "address[]",
          "name": "users",
          "type": "address[]"
        },
        {
          "internalType": "uint256[]",
          "name": "amounts",
          "type": "uint256[]"
        }
      ],
      "name": "setSnapshotQSD",
      "outputs": [],
      "stateMutability": "nonpayable",
      "type": "function"
    },
    {
      "inputs": [
        {
          "internalType": "uint256",
          "name": "amount",
          "type": "uint256"
        }
      ],
      "name": "swapQRT",
      "outputs": [],
      "stateMutability": "nonpayable",
      "type": "function"
    },
    {
      "inputs": [
        {
          "internalType": "uint256",
          "name": "amount",
          "type": "uint256"
        }
      ],
      "name": "swapQSD",
      "outputs": [],
      "stateMutability": "nonpayable",
      "type": "function"
    },
    {
      "inputs": [
        {
          "internalType": "address",
          "name": "",
          "type": "address"
        }
      ],
      "name": "swappedQRT",
      "outputs": [
        {
          "internalType": "uint256",
          "name": "",
          "type": "uint256"
        }
      ],
      "stateMutability": "view",
      "type": "function"
    },
    {
      "inputs": [
        {
          "internalType": "address",
          "name": "",
          "type": "address"
        }
      ],
      "name": "swappedQSD",
      "outputs": [
        {
          "internalType": "uint256",
          "name": "",
          "type": "uint256"
        }
      ],
      "stateMutability": "view",
      "type": "function"
    }
  ],
  "bytecode": "0x61010060405234801561001157600080fd5b50604051611f28380380611f288339818101604052810190610033919061016e565b8273ffffffffffffffffffffffffffffffffffffffff1660808173ffffffffffffffffffffffffffffffffffffffff16815250508173ffffffffffffffffffffffffffffffffffffffff1660a08173ffffffffffffffffffffffffffffffffffffffff16815250508073ffffffffffffffffffffffffffffffffffffffff1660c08173ffffffffffffffffffffffffffffffffffffffff16815250503373ffffffffffffffffffffffffffffffffffffffff1660e08173ffffffffffffffffffffffffffffffffffffffff16815250505050506101c1565b600080fd5b600073ffffffffffffffffffffffffffffffffffffffff82169050919050565b600061013b82610110565b9050919050565b61014b81610130565b811461015657600080fd5b50565b60008151905061016881610142565b92915050565b6000806000606084860312156101875761018661010b565b5b600061019586828701610159565b93505060206101a686828701610159565b92505060406101b786828701610159565b9150509250925092565b60805160a05160c05160e051611ce16102476000396000818161060a015281816108580152818161087c01528181610aa901528181610b7301528181610dfa0152610fed0152600081816106cc0152818161083401528181610b370152610ebc015260008181610a850152610dbd01526000818161041d01526105cd0152611ce16000f3fe608060405234801561001057600080fd5b506004361061010b5760003560e01c806389a30271116100a2578063c352078811610071578063c3520788146102bc578063e9b9ca6c146102d8578063efd03498146102f4578063f363cd5f14610310578063f4db26ec146103405761010b565b806389a30271146102465780638da5cb5b14610264578063af57228714610282578063b1e9a3a81461029e5761010b565b80634d1f8202116100de5780634d1f8202146101ac5780635988a41a146101c8578063641400c5146101e657806376ee3793146102165761010b565b80632ca4690f146101105780633e0f1dab14610140578063407bd9c0146101705780634714a9941461018e575b600080fd5b61012a60048036038101906101259190611307565b610370565b604051610137919061134d565b60405180910390f35b61015a60048036038101906101559190611307565b610403565b604051610167919061134d565b60405180910390f35b61017861041b565b60405161018591906113c7565b60405180910390f35b61019661043f565b6040516101a3919061134d565b60405180910390f35b6101c660048036038101906101c1919061140e565b610446565b005b6101d06107fb565b6040516101dd919061134d565b60405180910390f35b61020060048036038101906101fb9190611307565b610802565b60405161020d919061134d565b60405180910390f35b610230600480360381019061022b9190611307565b61081a565b60405161023d919061134d565b60405180910390f35b61024e610832565b60405161025b91906113c7565b60405180910390f35b61026c610856565b604051610279919061144a565b60405180910390f35b61029c60048036038101906102979190611520565b61087a565b005b6102a6610a83565b6040516102b391906113c7565b60405180910390f35b6102d660048036038101906102d1919061140e565b610aa7565b005b6102f260048036038101906102ed919061140e565b610c35565b005b61030e60048036038101906103099190611520565b610feb565b005b61032a60048036038101906103259190611307565b6111f5565b604051610337919061134d565b60405180910390f35b61035a60048036038101906103559190611307565b61120d565b604051610367919061134d565b60405180910390f35b6000600360008373ffffffffffffffffffffffffffffffffffffffff1673ffffffffffffffffffffffffffffffffffffffff16815260200190815260200160002054600160008473ffffffffffffffffffffffffffffffffffffffff1673ffffffffffffffffffffffffffffffffffffffff168152602001908152602001600020546103fc91906115d0565b9050919050565b60016020528060005260406000206000915090505481565b7f000000000000000000000000000000000000000000000000000000000000000081565b626acfc081565b60008111610489576040517f08c379a000000000000000000000000000000000000000000000000000000000815260040161048090611661565b60405180910390fd5b6000803373ffffffffffffffffffffffffffffffffffffffff1673ffffffffffffffffffffffffffffffffffffffff1681526020019081526020016000205481600260003373ffffffffffffffffffffffffffffffffffffffff1673ffffffffffffffffffffffffffffffffffffffff168152602001908152602001600020546105139190611681565b1115610554576040517f08c379a000000000000000000000000000000000000000000000000000000000815260040161054b90611701565b60405180910390fd5b80600260003373ffffffffffffffffffffffffffffffffffffffff1673ffffffffffffffffffffffffffffffffffffffff16815260200190815260200160002060008282546105a39190611681565b925050819055506000620f4240620dbba0836105bf9190611721565b6105c99190611792565b90507f000000000000000000000000000000000000000000000000000000000000000073ffffffffffffffffffffffffffffffffffffffff166323b872dd337f0000000000000000000000000000000000000000000000000000000000000000856040518463ffffffff1660e01b8152600401610648939291906117c3565b6020604051808303816000875af1158015610667573d6000803e3d6000fd5b505050506040513d601f19601f8201168201806040525081019061068b9190611832565b6106ca576040517f08c379a00000000000000000000000000000000000000000000000000000000081526004016106c1906118ab565b60405180910390fd5b7f000000000000000000000000000000000000000000000000000000000000000073ffffffffffffffffffffffffffffffffffffffff1663a9059cbb33836040518363ffffffff1660e01b81526004016107259291906118cb565b6020604051808303816000875af1158015610744573d6000803e3d6000fd5b505050506040513d601f19601f820116820180604052508101906107689190611832565b6107a7576040517f08c379a000000000000000000000000000000000000000000000000000000000815260040161079e90611940565b60405180910390fd5b3373ffffffffffffffffffffffffffffffffffffffff167f8d400643fa1ccaba7ce092175917c6d7087e296293a5d0de32bccb310f4774ab83836040516107ef9291906119ac565b60405180910390a25050565b620dbba081565b60026020528060005260406000206000915090505481565b60036020528060005260406000206000915090505481565b7f000000000000000000000000000000000000000000000000000000000000000081565b7f000000000000000000000000000000000000000000000000000000000000000081565b7f000000000000000000000000000000000000000000000000000000000000000073ffffffffffffffffffffffffffffffffffffffff163373ffffffffffffffffffffffffffffffffffffffff1614610908576040517f08c379a00000000000000000000000000000000000000000000000000000000081526004016108ff90611a34565b60405180910390fd5b818190508484905014610950576040517f08c379a000000000000000000000000000000000000000000000000000000000815260040161094790611aa0565b60405180910390fd5b60005b84849050811015610a7c5782828281811061097157610970611ac0565b5b9050602002013560008087878581811061098e5761098d611ac0565b5b90506020020160208101906109a39190611307565b73ffffffffffffffffffffffffffffffffffffffff1673ffffffffffffffffffffffffffffffffffffffff168152602001908152602001600020819055508484828181106109f4576109f3611ac0565b5b9050602002016020810190610a099190611307565b73ffffffffffffffffffffffffffffffffffffffff167f26762b82a4694940483daec4434420f79d887df276154ef98b0ff8c4a36a6430848484818110610a5357610a52611ac0565b5b90506020020135604051610a679190611aef565b60405180910390a28080600101915050610953565b5050505050565b7f000000000000000000000000000000000000000000000000000000000000000081565b7f000000000000000000000000000000000000000000000000000000000000000073ffffffffffffffffffffffffffffffffffffffff163373ffffffffffffffffffffffffffffffffffffffff1614610b35576040517f08c379a0000000000000000000000000000000000000000000000000000000008152600401610b2c90611a34565b60405180910390fd5b7f000000000000000000000000000000000000000000000000000000000000000073ffffffffffffffffffffffffffffffffffffffff1663a9059cbb7f0000000000000000000000000000000000000000000000000000000000000000836040518363ffffffff1660e01b8152600401610bb09291906118cb565b6020604051808303816000875af1158015610bcf573d6000803e3d6000fd5b505050506040513d601f19601f82011682018060405250810190610bf39190611832565b610c32576040517f08c379a0000000000000000000000000000000000000000000000000000000008152600401610c2990611b69565b60405180910390fd5b50565b60008111610c78576040517f08c379a0000000000000000000000000000000000000000000000000000000008152600401610c6f90611661565b60405180910390fd5b600160003373ffffffffffffffffffffffffffffffffffffffff1673ffffffffffffffffffffffffffffffffffffffff1681526020019081526020016000205481600360003373ffffffffffffffffffffffffffffffffffffffff1673ffffffffffffffffffffffffffffffffffffffff16815260200190815260200160002054610d039190611681565b1115610d44576040517f08c379a0000000000000000000000000000000000000000000000000000000008152600401610d3b90611701565b60405180910390fd5b80600360003373ffffffffffffffffffffffffffffffffffffffff1673ffffffffffffffffffffffffffffffffffffffff1681526020019081526020016000206000828254610d939190611681565b925050819055506000620f4240626acfc083610daf9190611721565b610db99190611792565b90507f000000000000000000000000000000000000000000000000000000000000000073ffffffffffffffffffffffffffffffffffffffff166323b872dd337f0000000000000000000000000000000000000000000000000000000000000000856040518463ffffffff1660e01b8152600401610e38939291906117c3565b6020604051808303816000875af1158015610e57573d6000803e3d6000fd5b505050506040513d601f19601f82011682018060405250810190610e7b9190611832565b610eba576040517f08c379a0000000000000000000000000000000000000000000000000000000008152600401610eb190611bd5565b60405180910390fd5b7f000000000000000000000000000000000000000000000000000000000000000073ffffffffffffffffffffffffffffffffffffffff1663a9059cbb33836040518363ffffffff1660e01b8152600401610f159291906118cb565b6020604051808303816000875af1158015610f34573d6000803e3d6000fd5b505050506040513d601f19601f82011682018060405250810190610f589190611832565b610f97576040517f08c379a0000000000000000000000000000000000000000000000000000000008152600401610f8e90611940565b60405180910390fd5b3373ffffffffffffffffffffffffffffffffffffffff167f8d400643fa1ccaba7ce092175917c6d7087e296293a5d0de32bccb310f4774ab8383604051610fdf929190611c41565b60405180910390a25050565b7f000000000000000000000000000000000000000000000000000000000000000073ffffffffffffffffffffffffffffffffffffffff163373ffffffffffffffffffffffffffffffffffffffff1614611079576040517f08c379a000000000000000000000000000000000000000000000000000000000815260040161107090611a34565b60405180910390fd5b8181905084849050146110c1576040517f08c379a00000000000000000000000000000000000000000000000000000000081526004016110b890611aa0565b60405180910390fd5b60005b848490508110156111ee578282828181106110e2576110e1611ac0565b5b9050602002013560016000878785818110611100576110ff611ac0565b5b90506020020160208101906111159190611307565b73ffffffffffffffffffffffffffffffffffffffff1673ffffffffffffffffffffffffffffffffffffffff1681526020019081526020016000208190555084848281811061116657611165611ac0565b5b905060200201602081019061117b9190611307565b73ffffffffffffffffffffffffffffffffffffffff167f26762b82a4694940483daec4434420f79d887df276154ef98b0ff8c4a36a64308484848181106111c5576111c4611ac0565b5b905060200201356040516111d99190611c7d565b60405180910390a280806001019150506110c4565b5050505050565b60006020528060005260406000206000915090505481565b6000600260008373ffffffffffffffffffffffffffffffffffffffff1673ffffffffffffffffffffffffffffffffffffffff168152602001908152602001600020546000808473ffffffffffffffffffffffffffffffffffffffff1673ffffffffffffffffffffffffffffffffffffffff1681526020019081526020016000205461129891906115d0565b9050919050565b600080fd5b600080fd5b600073ffffffffffffffffffffffffffffffffffffffff82169050919050565b60006112d4826112a9565b9050919050565b6112e4816112c9565b81146112ef57600080fd5b50565b600081359050611301816112db565b92915050565b60006020828403121561131d5761131c61129f565b5b600061132b848285016112f2565b91505092915050565b6000819050919050565b61134781611334565b82525050565b6000602082019050611362600083018461133e565b92915050565b6000819050919050565b600061138d611388611383846112a9565b611368565b6112a9565b9050919050565b600061139f82611372565b9050919050565b60006113b182611394565b9050919050565b6113c1816113a6565b82525050565b60006020820190506113dc60008301846113b8565b92915050565b6113eb81611334565b81146113f657600080fd5b50565b600081359050611408816113e2565b92915050565b6000602082840312156114245761142361129f565b5b6000611432848285016113f9565b91505092915050565b611444816112c9565b82525050565b600060208201905061145f600083018461143b565b92915050565b600080fd5b600080fd5b600080fd5b60008083601f84011261148a57611489611465565b5b8235905067ffffffffffffffff8111156114a7576114a661146a565b5b6020830191508360208202830111156114c3576114c261146f565b5b9250929050565b60008083601f8401126114e0576114df611465565b5b8235905067ffffffffffffffff8111156114fd576114fc61146a565b5b6020830191508360208202830111156115195761151861146f565b5b9250929050565b6000806000806040858703121561153a5761153961129f565b5b600085013567ffffffffffffffff811115611558576115576112a4565b5b61156487828801611474565b9450945050602085013567ffffffffffffffff811115611587576115866112a4565b5b611593878288016114ca565b925092505092959194509250565b7f4e487b7100000000000000000000000000000000000000000000000000000000600052601160045260246000fd5b60006115db82611334565b91506115e683611334565b92508282039050818111156115fe576115fd6115a1565b5b92915050565b600082825260208201905092915050565b7f496e76616c696420616d6f756e74000000000000000000000000000000000000600082015250565b600061164b600e83611604565b915061165682611615565b602082019050919050565b6000602082019050818103600083015261167a8161163e565b9050919050565b600061168c82611334565b915061169783611334565b92508282019050808211156116af576116ae6115a1565b5b92915050565b7f45786365656473206c696d697400000000000000000000000000000000000000600082015250565b60006116eb600d83611604565b91506116f6826116b5565b602082019050919050565b6000602082019050818103600083015261171a816116de565b9050919050565b600061172c82611334565b915061173783611334565b925082820261174581611334565b9150828204841483151761175c5761175b6115a1565b5b5092915050565b7f4e487b7100000000000000000000000000000000000000000000000000000000600052601260045260246000fd5b600061179d82611334565b91506117a883611334565b9250826117b8576117b7611763565b5b828204905092915050565b60006060820190506117d8600083018661143b565b6117e5602083018561143b565b6117f2604083018461133e565b949350505050565b60008115159050919050565b61180f816117fa565b811461181a57600080fd5b50565b60008151905061182c81611806565b92915050565b6000602082840312156118485761184761129f565b5b60006118568482850161181d565b91505092915050565b7f515344207472616e73666572206661696c656400000000000000000000000000600082015250565b6000611895601383611604565b91506118a08261185f565b602082019050919050565b600060208201905081810360008301526118c481611888565b9050919050565b60006040820190506118e0600083018561143b565b6118ed602083018461133e565b9392505050565b7f55534443207061796f7574206661696c65640000000000000000000000000000600082015250565b600061192a601283611604565b9150611935826118f4565b602082019050919050565b600060208201905081810360008301526119598161191d565b9050919050565b7f5153440000000000000000000000000000000000000000000000000000000000600082015250565b6000611996600383611604565b91506119a182611960565b602082019050919050565b600060608201905081810360008301526119c581611989565b90506119d4602083018561133e565b6119e1604083018461133e565b9392505050565b7f4e6f74206f776e65720000000000000000000000000000000000000000000000600082015250565b6000611a1e600983611604565b9150611a29826119e8565b602082019050919050565b60006020820190508181036000830152611a4d81611a11565b9050919050565b7f4c656e677468206d69736d617463680000000000000000000000000000000000600082015250565b6000611a8a600f83611604565b9150611a9582611a54565b602082019050919050565b60006020820190508181036000830152611ab981611a7d565b9050919050565b7f4e487b7100000000000000000000000000000000000000000000000000000000600052603260045260246000fd5b60006040820190508181036000830152611b0881611989565b9050611b17602083018461133e565b92915050565b7f5769746864726177206661696c65640000000000000000000000000000000000600082015250565b6000611b53600f83611604565b9150611b5e82611b1d565b602082019050919050565b60006020820190508181036000830152611b8281611b46565b9050919050565b7f515254207472616e73666572206661696c656400000000000000000000000000600082015250565b6000611bbf601383611604565b9150611bca82611b89565b602082019050919050565b60006020820190508181036000830152611bee81611bb2565b9050919050565b7f5152540000000000000000000000000000000000000000000000000000000000600082015250565b6000611c2b600383611604565b9150611c3682611bf5565b602082019050919050565b60006060820190508181036000830152611c5a81611c1e565b9050611c69602083018561133e565b611c76604083018461133e565b9392505050565b60006040820190508181036000830152611c9681611c1e565b9050611ca5602083018461133e565b9291505056fea2646970667358221220a051eb6674b2d6b99bed396846aa0d0b4f1e884b952f698b09588e0aa057549e64736f6c634300081c0033",
  "linkReferences": {},
  "deployedLinkReferences": {}
}